S01400004C692D696F6E5465737465722E7372656371
S11300001AC034C033C032C06DC530C02FC02EC03A
S11300102DC02CC02BC093CB45CB28C027C026C0F5
S113002025C024C023C002040810080402000804E8
S113003002010204080011241FBECFE5D4E0DEBF94
S1130040CDBF13E0A0E6B0E0E6E7F9E102C0059019
S11300500D92AA32B107D9F713E0AAE2B3E001C0C6
S11300601D92A03BB107E1F765D583CCC9CFB89AFF
S1130070BB9ABC9AC098C398C498089520912A0347
S113008088E090E027FF02C0C09A01C0C098C39ADC
S1130090C398019711F0220FF5CFC49AC49808951C
S11300A0FA01E65DFC4F6115710551F021E030E085
S11300B002C0220F331F8A95E2F78081822B0AC087
S11300C021E030E002C0220F331F8A95E2F7209529
S11300D0808182238083D2DF0895665D7C4FFB019B
S11300E08083CCDF0895FC01E65DFC4F8081089598
S11300F010929F0380EA93E090939C0380939B0368
S113010010922C0310922B03089590912B038D30A1
S113011009F44AC09F3008F040C0803279F1209140
S11301209F03222349F420EA33E030939C03209375
S11301309B0321E020939F0320912C032223A9F009
S113014040919F03423078F4E42FF0E0EE0FFF1F5C
S1130150E556FC4F292F30E020563C4F3183208355
S11301604F5F40939F0310922C03A92FB0E0A05639
S1130170BC4F8C939F5F90932B030FC080912C03F3
S1130180882359F4A92FB0E0A056BC4F1C929F5F5E
S113019090932B0381E080932C03E0912B03F0E0F8
S11301A0E056FC4F10820895E92FF0E0E056FC4F32
S11301B0108280919F03882319F06BE973E037D094
S11301C010929F0310922C0310922B030895E82F92
S11301D0F92F3E2F2F2F81918033D9F3C901E92FB5
S11301E0F82F20E030E011C090E0C097280F391FAD
S11301F08081882351F0C901880F991F43E0220FA1
S1130200331F4A95E1F7280F391F8191882361F73D
S1130210C9010895F89420912D0330912E03409143
S11302202F03509130037894B901CA0108951F93A4
S1130230FB0180819181CBDF90934C0380934B032E
S113024010914A031130A9F49C01245C3940F3E075
S1130250293E3F0758F464E670E0BDDA009731F4B4
S113026080E690E00CDA10934E0303C085E690E03C
S113027006DA80914A038230D1F480914B03909145
S11302804C039C012456304047E02D36340760F47B
S113029064E670E0A0DA009739F480E690E0EFD9E4
S11302A081E080934E0303C085E690E0E8D91F9176
S11302B0089589B78F7789BF82B5886082BD14BCE1
S11302C085B5856085BD089587B98AE18A95F1F77A
S11302D000C0E4E660E070E0CB01369A349BFECFC8
S11302E0349A24B135B140E050E0620F731F841F8B
S11302F0951FE15091F724E630E040E050E07FDACA
S1130300C90108951F93182F105D812FFED7812FE7
S113031090D91F9108951F93DF93CF930F92CDB778
S1130320DEB7182F105D812F6983EFD769816623AB
S113033011F0812F7ED90F90CF91DF911F910895F5
S11303400F931F93162F082F005D802FDED7105DAB
S1130350812FDBD7802F6DD9812F6BD91F910F91FE
S11303600895AF92BF92CF92DF92EF92FF920F93D4
S11303701F937B018C0120EA36E841E050E03FDA2C
S113038020E137E240E050E03ADA20934D032223A3
S113039011F0822FB7DFC801B70120E137E240E056
S11303A050E02DDA38EEA32E33E0B32EC12CD12C3D
S11303B0A601950124DA822FA5DF8EE2A6D78EE26C
S11303C038D9C801B701A601950119DA24E6A22E8D
S11303D0B12CC12CD12CA601950111DA822F92DF08
S11303E080914D03882361F4C801B701A6019501EA
S11303F006DA2AE030E040E050E001DA822F82DFC2
S11304001F910F91FF90EF90DF90CF90BF90AF902E
S1130410089582E059DF909359038093580321E0B3
S11304208B3D920740F080915A03882381F481E048
S113043080935A030CC021E08A35920740F48091DE
S11304405A03882321F010925A0319BC18BC8091D6
S11304505A038823B1F0609158037091590380E0E6
S113046090E02FEF31E040E050E096D92FEF33E0F9
S113047040E050E0E6D920503E4F4F4F5F4F39BD2A
S113048028BD08950F931F93182F062F80E01CDFBB
S11304908732910508F04FC081E026D78FE99FE0AD
S11304A00197F1F700C0000080E81ED785E790E0CF
S11304B060D780EC19D784E890E05BD71BBC1ABCEA
S11304C0002361F086E090E060E070E040E050E0FE
S11304D0E7DD89B78F7B89BF01C09BDF80E0F4DE55
S11304E087329105D0F30023E1F086E090E061E0EB
S11304F070E040E050E0D4DD89B7806489BF80912A
S113050027039091280364E670E065D94CE250E03B
S1130510649F9001659F300D749F300D11243BBD85
S11305202ABD112341F081E0DFD68FE99FE00197D6
S1130530F1F700C000001F910F9108951092470336
S11305401092480308C02BD8E0D780934703DDD727
S1130550809348035EDF809147038130A1F7809147
S11305604803813081F7089585E0AEDE24E08030D1
S1130570920778F181E0B8D68FE99FE00197F1F70F
S113058000C0000080E8B0D681E990E0F2D681ECAA
S1130590ABD682EA90E0EDD681EB90E070D81BBC3C
S11305A01ABC89B78F7B89BF86E090E060E070E079
S11305B040E050E075DDC2DF88ED90E060D828E0CF
S11305C088E190E00FB6F894A89581BD0FBE21BDD7
S11305D0FFCF08954F925F926F927F928F929F9276
S11305E0AF92BF92CF92DF92EF92FF920F931F933D
S11305F06B017C01042F122F442339F084EC74D650
S1130600112319F084EE90E03AD8C701B60120E135
S113061037E240E050E0F3D82B013C01822F612FF8
S11306207ADE68EE862E63E0962EA12CB12CC301EF
S1130630B201A5019401E3D8822F612F6CDEC701BA
S1130640B601A5019401DBD854E6852E912CA12C8A
S1130650B12CA5019401D3D8822F612F5CDEC70190
S1130660B601A5019401CBD84AE0842E912CA12C8B
S1130670B12CA5019401C3D8822F612F4CDEC70190
S1130680B601A5019401BBD8862F612F44DE002357
S113069041F0112319F08FEE90E0F1D786EF90E04E
S11306A068D61F910F91FF90EF90DF90CF90BF908D
S11306B0AF909F908F907F906F905F904F90089530
S11306C0CF92DF92EF92FF921F93182F87E090E072
S11306D061E070E040E050E0E3DC84E805D68AEFB6
S11306E090E0CDD770E1C72E7EE0D72EE12CF12C1F
S11306F01CC084E8F9D585E091E03BD6112389F04C
S113070088DE60913B0370913C0380913D0390919E
S11307103E03A701960173D8CA01B90141E020E064
S113072059DF81E060E0AEDE1FDF80E0CDDD26E052
S11307308E33920710F49B9BDCCF87E090E060E05F
S113074070E040E050E0ACDC112341F180E8CCD50E
S11307508EE091E00ED68FE191E091D760913B035A
S113076070913C0380913D0390913E0320E13EE073
S113077040E050E044D8CA01B90141E020E02ADF5A
S1130780DDDE88ED90E07BD728E088E190E00FB6CD
S1130790F894A89581BD0FBE21BDFFCF1F91FF9096
S11307A0EF90DF90CF900895EF92FF920F931F93F5
S11307B0209125033091260340E050E080914303CB
S11307C090914403A0914503B09146038217930787
S11307D0A407B50708F0AAC082E391E050D760915E
S11307E0430370914403809145039091460320E1B3
S11307F037E240E050E003D8A8EEEA2EA3E0FA2E58
S1130800012D112DA8019701FAD7822F12D78EE25C
S113081010D76091430370914403809145039091F4
S11308204603A8019701EBD7F4E6EF2EF12C012D36
S1130830112DA8019701E3D7822FFBD660914303C2
S1130840709144038091450390914603A801970158
S1130850D6D72AE030E040E050E0D1D7822FE9D665
S113086080E491E00CD71BBC1ABC86E090E060E009
S113087070E040E050E014DC89B78F7789BF81E0F5
S113088033D58FE99FE00197F1F700C0000081E8BC
S11308902BD581E190E03AD8AB01BC014F5F5F4FAB
S11308A06F4F7F4F81E190E04CD884E491E061D5B3
S11308B083E591E0E4D660913B0370913C03809121
S11308C03D0390913E03E0E1EE2EEEE0FE2E012D7D
S11308D0112DA801970193D7CA01B90141E021E084
S11308E079DE60913B0370913C0380913D039091CC
S11308F03E03A801970183D789E090E0BA01A901DA
S113090020D88FEF99E6A8E181509040A040E1F70C
S113091000C0000080E8E8D484E691E02AD58CE8A1
S1130920E3D484E691E025D581E0CADE1F910F91DE
S1130930FF90EF9008952F923F924F925F926F92A3
S11309407F928F929F92AF92BF92CF92DF92EF925B
S1130950FF920F931F93DF93CF9300D0CDB7DEB7F1
S11309609A8389831B012A0139010F70802F8068C3
S1130970BBD4C201FED489819A81C8D7F3017183A3
S113098060838F8980934A03C20179D689E691E016
S113099076D6C40174D6F3018081918108EE13E008
S11309A0B80119D7862F805D44D68CE242D6F30174
S11309B080819181B8010FD764E670E00CD7862F4F
S11309C0805D37D6C5015BD6B4E68B2E912C9DD5C0
S11309D0809347039AD58093480391D6882321F0C6
S11309E091D68093490391DB80914703823071F45F
S11309F080914803813051F4F301808191818C15F9
S1130A009D0520F4820D931D91838083809147037B
S1130A10833071F480914803813051F4F301808173
S1130A209181E816F90620F4821993099183808351
S1130A3080914703813021F480914803813021F073
S1130A4080914E03882391F180914E03882349F0CD
S1130A5080914B0390914C03F30191838083109216
S1130A604E03F3014081518160E070E089819A81F5
S1130A7068D781E039D48FE99FE00197F1F700C08E
S1130A8000000F900F90CF91DF911F910F91FF9075
S1130A90EF90DF90CF90BF90AF909F908F907F901A
S1130AA06F905F904F903F902F90089585EC1CD4E9
S1130AB081E02BD4F30180819181B8018CD6862FFB
S1130AC0805D23D48CE221D4F30180819181B8012B
S1130AD082D6B40180D6862F805D17D480E015D4E9
S1130AE05ED575CF1F920F920FB60F9211248F937C
S1130AF09F93AF93BF9380912D0390912E03A09168
S1130B002F03B09130030196A11DB11D80932D03D5
S1130B1090932E03A0932F03B093300381E080932E
S1130B203103BF91AF919F918F910F900FBE0F90A2
S1130B301F9018952F923F924F925F926F927F92DF
S1130B408F929F92AF92BF92CF92DF92EF92FF92D9
S1130B500F931F93DF93CF9300D000D000D0CDB775
S1130B60DEB7E8D481E060E875E22CD5C1DA81E033
S1130B7090E07DDADBD39DDB85E886B98CE691E0F5
S1130B807ED587B3866087BB84B3847D84BB86E2CD
S1130B9090E060E001D48EE290E061E0FDD38EE766
S1130BA091E06DD589E090E0B1D660933303709302
S1130BB03403809335039093360381E895D38EE70D
S1130BC091E0D7D384EC90D36091330370913403D4
S1130BD0809135039091360340E021E0FBDC86EF01
S1130BE090E0C7D38FEE90E04AD58FEF98E0ADE365
S1130BF081509040A040E1F700C0000080E060E038
S1130C0041DC88E090E07AD6813009F045C06CD3AD
S1130C10AFE9BFE01197F1F700C0000080E864D3AA
S1130C208DE891E0A6D38CE991E029D56ED4809328
S1130C3047036BD48093480365D58093490390910F
S1130C404703923021F420914803213021F0893563
S1130C5011F0893721F481E08093570315C0933054
S1130C6011F0913021F490914803913021F08E34A9
S1130C7011F08E3639F488E090E060E055D6109299
S1130C80570302C08CD4D2CF81E02ED3EFE9FFE02A
S1130C903197F1F700C0000080915703882309F0D1
S1130CA0A6C012DBF6E082359F0708F047C081E05A
S1130CB01BD38FE99FE00197F1F700C0000080E8A3
S1130CC013D383EB91E055D380EC0ED38AEB91E000
S1130CD050D387EC91E0D3D418D48093470315D430
S1130CE0809348030FD58093490390914703923032
S1130CF021F420914803213021F0893511F08937FE
S1130D0021F481E08093320311C0933011F09130CB
S1130D1021F490914803913021F08E3411F08E36F5
S1130D2019F41092320302C03AD4D6CF81E0DCD257
S1130D30AFE9BFE01197F1F700C000000F9282E025
S1130D40EDB7FEB781838DE090E064E670E043EE9A
S1130D5051E027E233E004E010E0B4E6EB2EF12C9E
S1130D60A0EDCA2EA7E0DA2EFCEEAF2EF1E0BF2EE6
S1130D70E0E28E2EE2E09E2EDEDD81E0ADB7BEB76E
S1130D8011968C9385E190E064E670E04FE252E0C6
S1130D9025E233E002E010E0B4ECEB2EB9E0FB2EE8
S1130DA0ACEACA2EADE0DA2EFCE3AF2EF2E0BF2EA1
S1130DB0C2DD0F9080913203882351F081E094D2F8
S1130DC0EFE9FFE03197F1F700C0000080E078DC44
S1130DD081E792E054D480E887D286E992E0C9D2D0
S1130DE080EC82D285EA92E0C4D2A8DB2BC08FE4E7
S1130DF093E060E070E048E050E070D588E090E077
S1130E0060E092D580914F0390915003A0915103DB
S1130E10B091520380933B0390933C03A0933D0312
S1130E20B0933E038091530390915403A0915503D2
S1130E30B091560380932D0390932E03A0932F0318
S1130E40B093300384EB92E01AD481E04DD28FE961
S1130E509FE00197F1F700C0000082EC92E00FD40C
S1130E608FB5806A8FBD8FB583608FBD8EB582606C
S1130E708EBD809127039091280364E670E0ABD483
S1130E802CE230E0629FC001639F900D729F900D31
S1130E9011249BBD8ABD19BC18BC86E090E061E0BA
S1130EA070E040E050E0FCD889B7806489BF789452
S1130EB01E010894211C311CE8EE8E2EE3E09E2EC8
S1130EC0A12CB12C7AE0472E512C612C712CA1DA83
S1130ED081E061E0D7DA48DB80913103882309F4AB
S1130EE0FCC080E0F1D99C01220F331F280F391F69
S1130EF03F73C901880F991F43E0220F331F4A959E
S1130F00E1F7820F931FA0E0B0E080934303909336
S1130F104403A0934503B093460381E0D5D99C01D3
S1130F20880F991F13E0220F331F1A95E1F7820FE0
S1130F30931F9C0140E050E020933F033093400313
S1130F40409341035093420380913B0390913C03AF
S1130F50A0913D03B0913E03820F931FA41FB51FC0
S1130F6080933B0390933C03A0933D03B0933E03D3
S1130F7051D9A1012AE030E07FD4C10180D380E2BD
S1130F8058D380E8B1D160914303709144038091B8
S1130F90450390914603E5D98EEE92E0EAD180E2D2
S1130FA048D386E8A1D160913F03709140038091BA
S1130FB0410390914203A501940121D4822FA2D927
S1130FC08EE2A3D18EE235D360913F03709140034A
S1130FD08091410390914203A501940110D424E629
S1130FE030E040E050E00BD4822F8CD960913F0375
S1130FF0709140038091410390914203A5019401B3
S1131000FED324E630E040E050E0F9D3A30192019E
S1131010F6D3822F805D0DD380EF92E0AAD180E2D7
S113102008D38BE861D1F6D82CE330E040E050E0FF
S1131030E6D379018A012093370330933803409330
S1131040390350933A03CA01B90128E532E040E07C
S113105050E0D5D3D22EC801B7012CE330E040E0F4
S113106050E0CDD3CA01B901A3019201C8D38D2D9B
S113107067D98AE3DED28AE348D16091370370915D
S113108038038091390390913A032CE330E040E037
S113109050E0B5D3A3019201B2D3822F51D980E29B
S11310A0C8D280EC21D160913B0370913C038091C4
S11310B03D0390913E0320E13EE040E050E09FD3A9
S11310C0CA01B90140E021E085DA86EF90E051D110
S11310D089E691E0D4D21092310361D216D2809382
S11310E0470313D28093480390914703913009F04A
S11310F07BC0813009F078C01BBC1ABC86E090E04C
S113110060E070E040E050E0CBD789B78F7B89BFC7
S113111080913B0390913C03A0913D03B0913E0329
S113112080934F0390935003A0935103B0935203C1
S113113071D8609353037093540380935503909331
S1131140560388E090E061E0EFD38FE493E060E041
S113115070E048E050E0DFD382EF92E090D289EC77
S1131160C3D083E093E005D1109247031092480363
S113117008C015D2CAD180934703C7D180934803CE
S113118048D9809147038130A1F780914803813089
S113119081F788E090E060E0C7D38CE691E06FD2FD
S11311A0809127039091280364E670E014D3ACE2A5
S11311B0B0E06A9FC0016B9F900D7A9F900D11243F
S11311C09BBD8ABD86E090E061E070E040E050E0C5
S11311D067D789B7806489BF89EC86D08AE093E0B9
S11311E0C8D081E193E04BD2DFDA71CE1F93182F80
S11311F080E090E078D7282F30E0237C3070412FB6
S1131200407F4695469550E0C901842B952B60E0BC
S113121070E063D780E090E061E070E040E050E08F
S11312203FD785E08A95F1F7000080E090E060E028
S113123070E040E050E034D7129580E090E053D75E
S1131240282F30E0237C3070107F16951695812F5F
S113125090E0822B932B60E070E03FD780E090E039
S113126061E070E040E050E01BD785E08A95F1F73B
S1131270000080E090E060E070E040E050E010D7D3
S11312801F9108951F93182F8AE68A95F1F700C0DD
S113129081E090E060E070E040E050E001D780E061
S11312A090E021D7282F30E0237C3070107F1695F2
S11312B01695812F90E0822B932B60E070E00DD780
S11312C080E090E061E070E040E050E0E9D685E045
S11312D08A95F1F7000080E090E060E070E040E083
S11312E050E0DED61F9108951F93182F8AE68A9541
S11312F0F1F700C081E090E060E070E040E050E091
S1131300CFD6812F73DF1F9108951F93182F8AE67C
S11313108A95F1F700C081E090E061E070E040E080
S113132050E0BED6812F62DF1F91089580E3AADFCB
S11313308FE19EE40197F1F700C0000080E3A2DF93
S11313408FE99FE00197F1F700C0000080E39ADF86
S113135088E298DF88E2C8DF8CE0C6DF81E0C4DF82
S11313608FE99FE00197F1F700C0000086E0BCDF41
S11313700895EF92FF92CF93DF93E82EE7017E0169
S1131380F92EE70101C0C1DF89918823E1F7DF91DC
S1131390CF91FF90EF9008950F931F93CF93DF9316
S11313A0EC01862F90E08770907023E0880F991FDE
S11313B02A95E1F7806498DF00E010E0FE01E00F79
S11313C0F11F8491A2DF0F5F1F4F08301105B1F7A1
S11313D0DF91CF911F910F91089520916A032830D6
S11313E078F490916B03E92FF0E0E459FC4F80838B
S11313F02F5F20936A03892F8F5F877080936B031D
S113140008950F931F93CF93DF93962F9150C92F75
S1131410D0E0FE01E55AFC4F1081FE01E25AFC4F78
S1131420908190936103FE01EE0FFF1FEE59FC4F74
S11314302081318130936903209368038823F1F07C
S113144081E0253F3807C0F52F5F3F4F3093690394
S1131450209368032B30310578F110FD05C011602D
S113146040FF02C001E001C000E081E0253F3807F1
S113147021F511FD22C01B7F12601FC010FF0CC09C
S113148011FD0AC012FF05C01B7F44FF05C005E023
S113149004C010926103146000E012FF07C0809141
S11314A06103893C18F0109261031B7F1092690359
S11314B0109268031C7F01C000E012FF07C08091F6
S11314C06103893C18F48F5F80936103FE01E25A43
S11314D0FC4F809161038083002321F0862F7DDF00
S11314E0802F7BDFFE01EE0FFF1FEE59FC4F809132
S11314F068039091690391838083C55ADC4F1883F4
S1131500DF91CF911F910F91089520916A032223B7
S113151079F090917403E92FF0E0E459FC4F808155
S1131520215020936A039F5F9770909374030895EA
S113153080E00895109263031092620310925B039B
S113154010925E03109265031092640310925C0380
S113155010925F03109267031092660310925D036A
S11315601092600310926C0310926D0310926E033C
S113157010926F0310927003109271031092720311
S11315801092730310926B031092740310926A0307
S11315908A9892988B9893988C989498089581E05F
S11315A0829980E061E041E12CDF81E0839980E071
S11315B062E041E026DF81E0849980E063E041E07D
S11315C020DF08951F931FB7F89410929A03109286
S11315D08903109288031092760310928703109265
S11315E075031AB810BC9B0140E050E0882341F415
S11315F094E0220F331F441F551F9A95D1F707C05B
S113160083E0220F331F441F551F8A95D1F760E0F2
S113161072E18AE790E0F3D02150304030BD29B91F
S113162082E08BB988E98AB986E880BD1FBF1F9123
S11316300895909188039031E1F3F8949091880390
S1131640992309F4559A909188039031B0F4E0916C
S11316509A03F0E0E657FC4F8083809188038F5F04
S11316608093880380919A038F5F80939A0380917B
S11316709A03803111F410929A0378940895EF92AA
S1131680FF92CF93DF93E82EE7017E01F92EE70165
S113169001C0CFDF89918823E1F7DF91CF91FF90DB
S11316A0EF9008951F920F920FB60F9211248F930B
S11316B0EF93FF93809188038823C1F0E09189031D
S11316C0F0E0E657FC4F80818CB98091880381500B
S11316D080938803809189038F5F8093890380912D
S11316E08903803121F41092890301C05598FF9138
S11316F0EF918F910F900FBE0F901F9018958091CE
S113170075030895809175038823B9F0E0918703E8
S1131710F0E0E958FC4F80819091750391509093CB
S11317207503909187039F5F90938703909187033C
S1131730903121F410928703089580E008951F9258
S11317400F920FB60F9211248F939F93EF93FF93F1
S11317508CB1909175039031B0F4E0917603F0E090
S1131760E958FC4F8083809176038F5F80937603E2
S113177080917603803111F4109276038091750381
S11317808F5F80937503FF91EF919F918F910F90DD
S11317900FBE0F901F901895629FD001739FF001A8
S11317A0829FE00DF11D649FE00DF11D929FF00DED
S11317B0839FF00D749FF00D659FF00D9927729F24
S11317C0B00DE11DF91F639FB00DE11DF91FBD01AF
S11317D0CF0111240895AA1BBB1B51E107C0AA1F06
S11317E0BB1FA617B70710F0A61BB70B881F991FBE
S11317F05A95A9F780959095BC01CD010895A1E271
S11318001A2EAA1BBB1BFD010DC0AA1FBB1FEE1F76
S1131810FF1FA217B307E407F50720F0A21BB30BC1
S1131820E40BF50B661F771F881F991F1A9469F73D
S113183060957095809590959B01AC01BD01CF0199
S1131840089597FB092E05260ED057FD04D0D7DF47
S11318500AD0001C38F450954095309521953F4F9F
S11318604F4F5F4F0895F6F7909580957095619569
S11318707F4F8F4F9F4F0895FA01CF93FF93EF93BC
S113188022303CF125322CF5C22FE894CA3049F4B9
S113189097FB3EF490958095709561957F4F8F4F9F
S11318A09F4F2C2F332744275527FF93EF93A7DF10
S11318B0EF91FF91605D6A330CF0695D6193B9014A
S11318C0CA01605070408040904059F716F4CDE250
S11318D0C19310828F919F91CF913BC0DC01CB01CA
S11318E0FC01E199FECF06C0FFBBEEBBE09A319646
S11318F00DB20D9241505040B8F70895E199FECFD2
S11319009FBB8EBBE09A99278DB30895A6E1B0E002
S113191044E050E0E5CFDC01CB0102C02D9105D0BD
S113192041505040D8F70895262FE199FECF9FBB30
S11319308EBB2DBB0FB6F894E29AE19A0FBE0196C6
S11319400895242FF2DF252FF0DF00C0EDDF272FCD
S1131950ECCFDC01FC01672F71917723E1F732971B
S113196004C07C916D9370836291AE17BF07C8F376
S10919700895F894FFCF76
S11319764F4B0D0A00496E76616C69642076616C82
S113198675650D0A00506C6561736520636F6E6E34
S11319966563740074686520626174746572792085
S11319A600486967682074656D7065726174757244
S11319B66500456E746572202D207265626F6F74C2
S11319C600437269746963616C2074656D70657235
S11319D661727572652121212054657374205374D4
S11319E66F707065640D0A005265626F6F74696E7C
S11319F6670D0A0043617061636974793A200020B7
S1131A066D41680D0A006D4168004368617267693B
S1131A166E670D0A004368617267696E67004675F2
S1131A266C6C206368617267656421203A290046FC
S1131A36756C6C206368617267656421203A290DB0
S1131A460A004C6F7720766F6C746167653A2000E4
S1131A56560D0A005465737420636F6D706C65745B
S1131A666564005465737420636F6D706C6574658A
S1131A76640D0A0020202020000D0A00496E6974B6
S1131A8669616C697A696E672E2E2E0D0A004C61A7
S1131A9673742063617061636974793A00436F6E8D
S1131AA674696E756520746573743F00436F6E7454
S1131AB6696E756520746573743F2028592F4E2905
S1131AC60D0A004368617267650074686520626187
S1131AD674746572793F004368617267652074683F
S1131AE66520626174746572793F2028592F4E29E6
S1131AF60D0A0043757272656E743A000D0A5365D9
S1131B066E642076616C7565203130302D3230304C
S1131B163020776974682073746570203130302002
S1131B26286F722073656E64206F6B293A0D0A0064
S1131B3644656661756C742076616C75653A00451A
S1131B466E6420766F6C746167653A000D0A53659E
S1131B566E642076616C756520323530302D3335F0
S1131B6630302077697468207374657020313030A2
S1131B7620286F722073656E64206F6B293A0D0AF4
S1131B8600507265737320616E79206B65792074D9
S1131B966F2073746172742074686520746573743D
S1131BA62E2E2E0D0A0050726573732073746172A3
S1131BB67420746F00626567696E207468652074AA
S1131BC6657374005374617274696E672E2E2E0DDC
S1131BD60A005365636F6E6473207C20566F6C74C1
S1131BE6616765207C20416D706572616765207C44
S1131BF62054696D65207C206D41680D0A005600ED
S1131C064100546573742073757370656E646564FE
S1131C160D0A005041555345440020202020202021
S1131C26005465737420636F6E74696E7565642EF3
S10D1C362E2E0D0A00C409640000FC
S9030000FC
