:100000001AC034C033C032C0B7C430C02FC02EC0F5
:100010002DC02CC02BC009CABBC928C027C026C010
:1000200025C024C023C002040810080402000804EC
:1000300002010204080011241FBECFE5D4E0DEBF98
:10004000CDBF13E0A0E6B0E0ECECF5E102C0059016
:100050000D92A430B107D9F713E0A4E0B3E001C0DA
:100060001D92AD37B107E1F7AFD4AECAC9CF109238
:100070006C038DE693E0909369038093680310927C
:100080000503109204030895909104038D3009F440
:100090004AC09F3008F040C0803279F120916C0353
:1000A000222349F42DE633E030936903209368035B
:1000B00021E020936C03209105032223A9F04091B5
:1000C0006C03423078F4E42FF0E0EE0FFF1FE859A4
:1000D000FC4F292F30E023593C4F318320834F5F61
:1000E00040936C0310920503A92FB0E0A359BC4FB5
:1000F0008C939F5F909304030FC080910503882326
:1001000059F4A92FB0E0A359BC4F1C929F5F909364
:10011000040381E080930503E0910403F0E0E359D8
:10012000FC4F10820895E92FF0E0E359FC4F108254
:1001300080916C03882319F068E673E037D0109241
:100140006C0310920503109204030895E82FF92F11
:100150003E2F2F2F81918033D9F3C901E92FF82F3A
:1001600020E030E011C090E0C097280F391F808157
:10017000882351F0C901880F991F43E0220F331FD4
:100180004A95E1F7280F391F8191882361F7C9014A
:100190000895F894209106033091070340910803D5
:1001A000509109037894B901CA0108951F93FB0186
:1001B00080819181CBDF909325038093240310915C
:1001C00023031130A9F49C01245C3940F3E0293E5B
:1001D0003F0758F464E670E055D9009731F480E6A3
:1001E00090E0C3D81093270303C085E690E0BDD804
:1001F000809123038230D1F48091240390912503D0
:100200009C012456304047E02D36340760F464E604
:1002100070E038D9009739F480E690E0A6D881E004
:100220008093270303C085E690E09FD81F9108952F
:1002300089B78F7789BF82B5886082BD14BC85B5C8
:10024000856085BD089587B98AE18A95F1F700C078
:10025000E3E060E070E0CB01369A349BFECF349A45
:1002600024B135B140E050E0620F731F841F951F29
:10027000E15091F723E030E040E050E017D9C901A8
:1002800008951F93182F105D812FB0D6812F47D866
:100290001F9108951F93DF93CF930F92CDB7DEB7D1
:1002A000182F105D812F6983A1D66981662311F013
:1002B000812F35D80F90CF91DF911F9108950F9323
:1002C0001F93162F082F005D802F90D6105D812F71
:1002D0008DD6802F24D8812F22D81F910F91089579
:1002E000AF92BF92CF92DF92EF92FF920F931F9344
:1002F0007B018C0120EA36E841E050E0D7D820E1CC
:1003000037E240E050E0D2D820932603222311F0B8
:10031000822FB7DFC801B70120E137E240E050E0AB
:10032000C5D838EEA32E33E0B32EC12CD12CA601B4
:100330009501BCD8822FA5DF8EE258D68EE2EFD78A
:10034000C801B701A6019501B1D824E6A22EB12CAF
:10035000C12CD12CA6019501A9D8822F92DF8091C2
:100360002603882361F4C801B701A60195019ED830
:100370002AE030E040E050E099D8822F82DF1F91E0
:100380000F91FF90EF90DF90CF90BF90AF900895C6
:100390000F931F93182F062F80E055DF87329105AA
:1003A00008F041C081E01BD68FE99FE00197F1F78B
:1003B00000C0000080E813D685E790E050D680ECBE
:1003C0000ED684E890E04BD61BBC1ABC002321F06B
:1003D000C59889B78F7B89BF80E035DF873291056B
:1003E000D8F30023B1F0C59A89B7806489BF8091A2
:1003F00001039091020364E670E044D84CE250E0BF
:10040000649F9001659F300D749F300D11243BBD9A
:100410002ABD112341F081E0E2D58FE99FE00197E9
:10042000F1F700C000001F910F91089504C0E0D7BC
:10043000882339F42AD7DFD6813019F0DCD6813011
:10044000B1F3089585E0FFDE23E08335920750F194
:1004500081E0C5D58FE99FE00197F1F700C000006A
:1004600080E8BDD581E990E0FAD581ECB8D582EA83
:1004700090E0F5D581EB90E078D7F8941BBC1ABCDE
:10048000C5988EB58D7F8EBDD1DF88ED90E06DD79C
:1004900028E088E190E00FB6F894A89581BD0FBEE2
:1004A00021BDFFCF08954F925F926F927F928F92FE
:1004B0009F92AF92BF92CF92DF92EF92FF920F93F3
:1004C0001F936B017C01042F122F442339F084EC1D
:1004D00086D5112319F084EE90E047D7C701B60105
:1004E00020E137E240E050E0E1D72B013C01822FD0
:1004F000612FD0DE68EE862E63E0962EA12CB12C03
:10050000C301B201A5019401D1D7822F612FC2DEB0
:10051000C701B601A5019401C9D754E6852E912CD7
:10052000A12CB12CA5019401C1D7822F612FB2DE7D
:10053000C701B601A5019401B9D74AE0842E912CD8
:10054000A12CB12CA5019401B1D7822F612FA2DE7D
:10055000C701B601A5019401A9D7862F612F9ADEA4
:10056000002341F0112319F08FEE90E0FED686EFC4
:1005700090E075D51F910F91FF90EF90DF90CF9095
:10058000BF90AF909F908F907F906F905F904F90B3
:100590000895CF92DF92EF92FF921F93182FAA9A9D
:1005A00084E81DD58AEF90E0E0D670E1C72E7EE0AA
:1005B000D72EE12CF12C1BC084E811D585E091E009
:1005C0004ED5112381F06091140370911503809131
:1005D000160390911703A701960168D7CA01B901C4
:1005E00041E020E060DF81E060E0D2DE2BDF80E0F0
:1005F0002ADE26E08E33920710F49B9BDDCFAA986B
:10060000112341F180E8EBD48EE091E028D58FE111
:1006100091E0ABD66091140370911503809116039D
:100620009091170320E13EE040E050E03FD7CA013F
:10063000B90141E020E037DFF9DE88ED90E095D6A2
:1006400028E088E190E00FB6F894A89581BD0FBE30
:1006500021BDFFCF1F91FF90EF90DF90CF900895C5
:10066000EF92FF920F931F932091FF0230910003AE
:1006700040E050E080911C0390911D03A0911E0367
:10068000B0911F0382179307A407B50708F098C01D
:1006900082E391E06AD660911C0370911D03809102
:1006A0001E0390911F0320E137E240E050E0FED6A8
:1006B000A8EEEA2EA3E0FA2E012D112DA801970134
:1006C000F5D6822F2CD68EE22AD660911C0370912B
:1006D0001D0380911E0390911F03A8019701E6D688
:1006E000F4E6EF2EF12C012D112DA8019701DED695
:1006F000822F15D660911C0370911D0380911E03FB
:1007000090911F03A8019701D1D62AE030E040E084
:1007100050E0CCD6822F03D680E491E026D61BBCD5
:100720001ABCC59889B78F7789BF81E058D48FE903
:100730009FE00197F1F700C0000081E850D484E405
:1007400091E08DD483E591E010D66091140370910F
:1007500015038091160390911703E0E1EE2EEEE071
:10076000FE2E012D112DA8019701A0D6CA01B901B5
:1007700041E021E098DE60911403709115038091AF
:10078000160390911703A801970190D680E090E09E
:10079000BA01A901E4D68FEF99E6A8E18150904013
:1007A000A040E1F700C0000080E819D484E691E0A1
:1007B00056D48CE814D484E691E051D481E0E9DE8B
:1007C0001F910F91FF90EF9008952F923F924F92BB
:1007D0005F926F927F928F929F92AF92BF92CF92D1
:1007E000DF92EF92FF920F931F93DF93CF9300D08E
:1007F000CDB7DEB79A8389831B012A0139010F70B7
:10080000802F8068ECD3C2012AD489819A81A2D634
:10081000F301718360838F8980932303C201A5D57F
:1008200089E691E0A2D5C401A0D5F3018081918130
:1008300008EE13E0B80126D6862F805D70D58CE2D5
:100840006ED5F30180819181B8011CD664E670E019
:1008500019D6862F805D63D5C50187D5B4E68B2E6A
:10086000912CC9D480932003C6D480932103BDD595
:10087000882321F0BDD58093220306DC80912003DC
:10088000823071F480912103813051F4F301808131
:1008900091818C159D0520F4820D931D9183808399
:1008A00080912003833071F480912103813051F4D1
:1008B000F30180819181E816F90620F482199309E9
:1008C0009183808380912003813021F480912103E2
:1008D000813021F080912703882391F180912703B3
:1008E000882349F08091240390912503F30191839B
:1008F000808310922703F3014081518160E070E012
:1009000089819A812CD681E06AD38FE99FE0019793
:10091000F1F700C000000F900F90CF91DF911F9171
:100920000F91FF90EF90DF90CF90BF90AF909F908E
:100930008F907F906F905F904F903F902F90089591
:1009400085EC4DD381E052D3F30180819181B801D0
:1009500099D5862F805D4AD38CE248D3F3018081FC
:100960009181B8018FD5B4018DD5862F805D3ED39E
:1009700080E03CD38AD475CF1F920F920FB60F92AE
:1009800011248F939F93AF93BF938091060390910F
:100990000703A0910803B09109030196A11DB11DA1
:1009A0008093060390930703A0930803B093090371
:1009B00081E080930A03BF91AF919F918F910F9037
:1009C0000FBE0F901F9018952F923F924F925F92FB
:1009D0006F927F928F929F92AF92BF92CF92DF924F
:1009E000EF92FF920F931F93DF93CF9300D000D02D
:1009F00000D0CDB7DEB714D481E060E875E258D4FA
:100A000036DBFBD215DC85E886B98CE691E0ADD407
:100A100087B3826287BB84B3847D84BB84B38461E3
:100A200084BB86E290E060E02DD38EE290E061E04E
:100A300029D38EE791E099D480E090E08BD5609344
:100A40000C0370930D0380930E0390930F0381E8C2
:100A5000C6D28EE791E003D384ECC1D260910C033F
:100A600070910D0380910E0390910F0340E021E0FF
:100A70001ADD86EF90E0F3D28FEE90E076D4AC9A58
:100A80008FEF91EEA4E081509040A040E1F700C0CC
:100A90000000AC988FEF98E0ADE381509040A0400B
:100AA000E1F700C0000080E060E072DC80E0CBDBBA
:100AB000A6E082359A0708F047C081E090D2EFE9BE
:100AC000FFE03197F1F700C0000080E888D28DE8A0
:100AD00091E0C5D280EC83D284E991E0C0D281EA72
:100AE00091E043D488D38093200385D3809321035E
:100AF0007FD48093220390912003923021F420919F
:100B00002103213021F0893511F0893721F481E06A
:100B100080930B0311C0933011F0913021F4909128
:100B20002103913021F08E3411F08E3619F4109299
:100B30000B0302C0AAD3D6CF81E051D28FE99FE048
:100B40000197F1F700C000000F9282E0ADB7BEB789
:100B500011968C9384E090E064E670E04DEB51E0F8
:100B600021E033E004E010E0B4E6EB2EF12CA0ED40
:100B7000CA2EA7E0DA2EF6ECAF2EF1E0BF2EEAEF98
:100B80008E2EE1E09E2E21DE81E0EDB7FEB781835F
:100B900088E090E064E670E049E052E02FEF32E058
:100BA00002E010E0B4ECEB2EB9E0FB2EACEACA2E6A
:100BB000ADE0DA2EF6E1AF2EF2E0BF2E06DE0F90AA
:100BC00080910B03882351F081E009D28FE99FE0E7
:100BD0000197F1F700C0000080E0DBDC8BE492E0DD
:100BE000C4D380E8FCD180E792E039D280ECF7D121
:100BF0008FE792E034D21ADC8EE892E0B6D381E03F
:100C0000EED1AFE9BFE01197F1F700C000008CE929
:100C100092E0ABD38FB580688FBD8FB583608FBDF9
:100C20008EB582608EBD809101039091020364E6CF
:100C300070E028D42CE230E0629FC001639F900DE9
:100C4000729F900D11249BBD8ABDC59A89B780649F
:100C500089BF78941E010894211C311CE8EE8E2E69
:100C6000E3E09E2EA12CB12C7AE0472E512C612C72
:100C7000712C81E061E08CDBE5DB80910A03882345
:100C800009F4FCC080E0DFDA9C01220F331F280F3B
:100C9000391F3F73C901880F991F43E0220F331F8B
:100CA0004A95E1F7820F931FA0E0B0E080931C0308
:100CB00090931D03A0931E03B0931F0381E0C3DA3A
:100CC0009C01880F991F13E0220F331F1A95E1F73B
:100CD000820F931F9C0140E050E020931803309353
:100CE000190340931A0350931B03809114039091AE
:100CF0001503A0911603B0911703820F931FA41F31
:100D0000B51F8093140390931503A0931603B0931B
:100D100017033FDAA1012AE030E0EAD3C10125D36D
:100D200080E2FDD280E85BD160911C0370911D03CD
:100D300080911E0390911F03D3DA88EC92E08FD14B
:100D400080E2EDD286E84BD16091180370911903CF
:100D500080911A0390911B03A5019401A7D3822FC0
:100D600090DA8EE243D18EE2DAD26091180370916C
:100D7000190380911A0390911B03A501940196D346
:100D800024E630E040E050E091D3822F7ADA60919F
:100D900018037091190380911A0390911B03A50108
:100DA000940184D324E630E040E050E07FD3A301F7
:100DB00092017CD3822F805DB2D28AEC92E04FD137
:100DC00080E2ADD28BE80BD1E4D92CE330E040E0F7
:100DD00050E06CD379018A01209310033093110302
:100DE0004093120350931303CA01B90128E532E07E
:100DF00040E050E05BD3D22EC801B7012CE330E0D5
:100E000040E050E053D3CA01B901A30192014ED38F
:100E10008D2D55DA8AE383D28AE3E8D060911003FE
:100E20007091110380911203909113032CE330E031
:100E300040E050E03BD3A301920138D3822F3FDA48
:100E400080E26DD280ECCBD06091140370911503D9
:100E5000809116039091170320E13EE040E050E0BE
:100E600025D3CA01B90140E021E01DDB86EF90E007
:100E7000F6D089E691E079D210920A0306D2BBD16E
:100E800080932003B8D18093210390912003913067
:100E900009F046C0813009F043C01BBC1ABCC5989C
:100EA00089B78F7B89BF8CEC92E05FD289EC97D0B9
:100EB0008DED92E0D4D0109220031092210307C050
:100EC000E4D199D18093200396D18093210380911E
:100ED00020038130A9F780912103813089F78CE6C6
:100EE00091E043D2809101039091020364E670E0A7
:100EF000C9D2ECE2F0E06E9FC0016F9F900D7E9F23
:100F0000900D11249BBD8ABDC59A89B7806489BFA5
:100F100089EC65D084EE92E0A2D08BEE92E025D2EF
:100F20009FDBA7CE282F207F922F24FF02C0C09ADC
:100F300001C0C09895FF02C0959A01C0959896FF90
:100F400002C0969A01C0969827FF02C0979A01C0E6
:100F50009798C39A95E09A95F1F70000C398829507
:100F6000807F982F84FF02C0C09A01C0C09895FF6F
:100F700002C0959A01C0959896FF02C0969A01C04A
:100F8000969887FF02C0979A01C09798C39A85E008
:100F90008A95F1F70000C39808959AE69A95F1F7BB
:100FA00000C0C498807F982F84FF02C0C09A01C0FF
:100FB000C09895FF02C0959A01C0959896FF02C00F
:100FC000969A01C0969887FF02C0979A01C0979899
:100FD000C39A85E08A95F1F70000C39808959AE6D0
:100FE0009A95F1F700C0C4989DDF08959AE69A9506
:100FF000F1F700C0C49A96DF0895B89A8D9A8E9A38
:101000008F9ABC9ABB9A8FEF99EFA0E081509040E5
:10101000A040E1F700C0000080E3BFDFAFE1BEE425
:101020001197F1F700C0000080E3B7DF8FE99FE080
:101030000197F1F700C0000080E3AFDF88E2ADDF89
:1010400088E2CDDF8CE0CBDF81E0C9DFAFE9BFE034
:101050001197F1F700C0000086E0C1DF0895EF921C
:10106000FF92CF93DF93E82EE7017E01F92EE7018F
:1010700001C0BCDF89918823E1F7DF91CF91FF9018
:10108000EF9008950F931F93CF93DF93EC01862F7A
:1010900090E08770907023E0880F991F2A95E1F700
:1010A00080649DDF00E010E0FE01E00FF11F8491FD
:1010B0009DDF0F5F1F4F08301105B1F7DF91CF9112
:1010C0001F910F91089520913703283078F4909163
:1010D0003803E92FF0E0E75CFC4F80832F5F20931B
:1010E0003703892F8F5F87708093380308950F939C
:1010F0001F93CF93DF93962F9150C92FD0E0FE011D
:10110000E85DFC4F1081FE01E55DFC4F90819093FE
:101110002E03FE01EE0FFF1FE15DFC4F20813181A8
:1011200030933603209335038823F1F081E0253F87
:101130003807C0F52F5F3F4F3093360320933503B8
:101140002B30310578F110FD05C0116040FF02C061
:1011500001E001C000E081E0253F380721F511FDE5
:1011600022C01B7F12601FC010FF0CC011FD0AC0FF
:1011700012FF05C01B7F44FF05C005E004C01092AC
:101180002E03146000E012FF07C080912E03893CFB
:1011900018F010922E031B7F109236031092350325
:1011A0001C7F01C000E012FF07C080912E03893C24
:1011B00018F48F5F80932E03FE01E55DFC4F809154
:1011C0002E038083002321F0862F7DDF802F7BDF9D
:1011D000FE01EE0FFF1FE15DFC4F80913503909102
:1011E000360391838083C85DDC4F1883DF91CF91F4
:1011F0001F910F91089520913703222379F0909148
:101200004103E92FF0E0E75CFC4F808121502093FF
:1012100037039F5F977090934103089580E008958E
:101220001092300310922F031092280310922B0378
:1012300010923203109231031092290310922C0362
:10124000109234031092330310922A0310922D034C
:101250001092390310923A0310923B0310923C0310
:1012600010923D0310923E0310923F0310924003F0
:101270001092380310924103109237038A98929883
:101280008B9893988C989498089581E0829980E047
:1012900061E041E12CDF81E0839980E062E041E0A0
:1012A00026DF81E0849980E063E041E020DF08955B
:1012B0001F931FB7F8941092670310925603109271
:1012C00055031092430310925403109242031AB82C
:1012D00010BC9B0140E050E0882341F494E0220FD1
:1012E000331F441F551F9A95D1F707C083E0220F83
:1012F000331F441F551F8A95D1F760E072E18AE7DA
:1013000090E0D4D02150304030BD29B982E08BB973
:1013100088E98AB986E880BD1FBF1F910895909122
:1013200055039031E1F3F89490915503992309F412
:10133000559A909155039031B0F4E0916703F0E035
:10134000E95AFC4F8083809155038F5F809355034A
:10135000809167038F5F809367038091670380317B
:1013600011F41092670378940895EF92FF92CF934F
:10137000DF93E82EE7017E01F92EE70101C0CFDF00
:1013800089918823E1F7DF91CF91FF90EF90089545
:101390001F920F920FB60F9211248F93EF93FF932A
:1013A000809155038823C1F0E0915603F0E0E95A9B
:1013B000FC4F80818CB980915503815080935503F7
:1013C000809156038F5F809356038091560380313E
:1013D00021F41092560301C05598FF91EF918F911F
:1013E0000F900FBE0F901F901895809142030895A3
:1013F000809142038823B9F0E0915403F0E0EC5B64
:10140000FC4F8081909142039150909342039091C0
:1014100054039F5F9093540390915403903121F4AF
:1014200010925403089580E008951F920F920FB612
:101430000F9211248F939F93EF93FF938CB1909110
:1014400042039031B0F4E0914303F0E0EC5BFC4FD9
:101450008083809143038F5F809343038091430394
:10146000803111F410924303809142038F5F809387
:101470004203FF91EF919F918F910F900FBE0F90BC
:101480001F901895AA1BBB1B51E107C0AA1FBB1FC9
:10149000A617B70710F0A61BB70B881F991F5A9500
:1014A000A9F780959095BC01CD010895A1E21A2E6F
:1014B000AA1BBB1BFD010DC0AA1FBB1FEE1FFF1FF8
:1014C000A217B307E407F50720F0A21BB30BE40B48
:1014D000F50B661F771F881F991F1A9469F760958F
:1014E0007095809590959B01AC01BD01CF01089549
:1014F000FA01CF93FF93EF9322303CF125322CF584
:10150000C22FE894CA3049F497FB3EF49095809539
:10151000709561957F4F8F4F9F4F2C2F3327442716
:101520005527FF93EF93C2DFEF91FF91605D6A3320
:101530000CF0695D6193B901CA0160507040804050
:10154000904059F716F4CDE2C19310828F919F918C
:10155000CF910DC0A6E1B0E044E050E01AC0242FC6
:1015600027D0252F25D000C022D0272F21C0DC0175
:10157000FC01672F71917723E1F7329704C07C91CA
:101580006D9370836291AE17BF07C8F30895DC01B5
:10159000CB01FC01E199FECF06C0FFBBEEBBE09A98
:1015A00031960DB20D9241505040B8F70895262F54
:1015B000E199FECF9FBB8EBB2DBB0FB6F894E29A8C
:0C15C000E19A0FBE01960895F894FFCF49
:1015CC004F4B0D0A00496E76616C69642076616C34
:1015DC0075650D0A00506C6561736520636F6E6EE6
:1015EC006563740074686520626174746572792037
:1015FC0000486967682074656D70657261747572F6
:10160C006500456E746572202D207265626F6F7473
:10161C0000437269746963616C2074656D706572E6
:10162C006172757265212121205465737420537485
:10163C006F707065640D0A005265626F6F74696E2D
:10164C00670D0A0043617061636974793A20002068
:10165C006D41680D0A006D416800436861726769ED
:10166C006E670D0A004368617267696E67004675A4
:10167C006C6C206368617267656421203A290046AE
:10168C00756C6C206368617267656421203A290D62
:10169C000A004C6F7720766F6C746167653A200096
:1016AC00560D0A005465737420636F6D706C65740D
:1016BC006564005465737420636F6D706C6574653C
:1016CC00640D0A0020202020000D0A00496E697468
:1016DC0069616C697A696E672E2E2E0D0A004C6159
:1016EC0073742063617061636974793A0043686153
:1016FC007267650074686520626174746572793F05
:10170C000043686172676520746865206261747457
:10171C006572793F2028592F4E290D0A00437572A6
:10172C0072656E743A000D0A53656E642076616CB6
:10173C007565203130302D32303030207769746847
:10174C0020737465702031303020286F72207365DF
:10175C006E64206F6B293A0D0A0044656661756CE6
:10176C00742076616C75653A00456E6420766F6CFA
:10177C00746167653A000D0A53656E642076616C7E
:10178C00756520323530302D333530302077697423
:10179C006820737465702031303020286F7220738C
:1017AC00656E64206F6B293A0D0A00507265737375
:1017BC0020616E79206B657920746F20737461726F
:1017CC00742074686520746573742E2E2E0D0A00B7
:1017DC00507265737320737461727420746F00623D
:1017EC006567696E20746865207465737400537442
:1017FC00617274696E672E2E2E0D0A005365636F2D
:10180C006E6473207C20566F6C74616765207C203D
:10181C00416D706572616765207C2054696D65202F
:10182C007C206D41680D0A005600410054657374AC
:10183C002073757370656E6465640D0A00504155B4
:10184C005345440020202020202000546573742030
:10185C00636F6E74696E7565642E2E2E0D0A00C44E
:04186C0009E8030084
:00000001FF
