S01400004C692D696F6E5465737465722E7372656371
S11300001AC034C033C032C01DC430C02FC02EC08B
S11300102DC02CC02BC04EC800C828C027C026C085
S113002025C024C023C002040810080402000804E8
S113003002010204080011241FBECFE5D4E0DEBF94
S1130040CDBF12E0A0E6B0E0EAECF2E102C0059018
S11300500D92A03DB107D9F713E0A0EDB2E001C0C5
S11300601D92AF32B107E1F715D42DC9C9CF109253
S11300701E038FE193E090931B0380931A03109265
S1130080D1021092D00208959091D0028D3009F4DB
S11300904AC09F3008F040C0803279F120911E039D
S11300A0222349F42FE133E030931B0320931A03F6
S11300B021E020931E032091D1022223A9F0409134
S11300C01E03423078F4E42FF0E0EE0FFF1FE65EEB
S11300D0FC4F292F30E0215E3C4F318320834F5F5A
S11300E040931E031092D102A92FB0E0A15EBC4F31
S11300F08C939F5F9093D0020FC08091D10288238C
S113010059F4A92FB0E0A15EBC4F1C929F5F90935D
S1130110D00281E08093D102E091D002F0E0E15E70
S1130120FC4F10820895E92FF0E0E15EFC4F10824D
S113013080911E03882319F06AE173E037D010928E
S11301401E031092D1021092D0020895E82FF92FC5
S11301503E2F2F2F81918033D9F3C901E92FF82F36
S113016020E030E011C090E0C097280F391F808153
S1130170882351F0C901880F991F43E0220F331FD0
S11301804A95E1F7280F391F8191882361F7C90146
S11301900895F8942091D2023091D3024091D40270
S11301A05091D5027894B901CA0108951F93FB01B7
S11301B080819181CBDF9093F0028093EF021091C4
S11301C0EE021130A9F49C01245C3940F3E0293E8D
S11301D03F0758F464E670E0B9D7009731F480E63D
S11301E090E008D71093F10203C085E690E002D7AF
S11301F08091EE028230D1F48091EF029091F0026E
S11302009C012456304047E02D36340760F464E600
S113021070E09CD7009739F480E690E0EBD681E05B
S11302208093F10203C085E690E0E4D61F9108951F
S113023089B78F7789BF82B5886082BD14BC85B5C4
S1130240856085BD089587B98AE18A95F1F700C074
S1130250369A349BFECF349A24B135B1C90108953E
S11302601F93182F105D812FC6D5812F9DD61F9106
S113027008951F93DF93CF930F92CDB7DEB7182F56
S1130280105D812F6983B7D56981662311F0812FB1
S11302908BD60F90CF91DF911F9108950F931F93E9
S11302A0162F082F005D802FA6D5105D812FA3D5B2
S11302B0802F7AD6812F78D61F910F910895AF920F
S11302C0BF92CF92DF92EF92FF920F931F935B0145
S11302D06C0120E137E240E050E04CD738EEE32EE9
S11302E033E0F32E012D112DA801970143D7822F5E
S11302F0B7DF8EE280D58EE257D6C601B501A801DC
S1130300970138D724E6E22EF12C012D112DA801F6
S1130310970130D7822FA4DFC601B501A801970148
S113032029D72AE030E040E050E024D7822F98DF3C
S11303301F910F91FF90EF90DF90CF90BF90AF90FF
S1130340089580E080DF86319105B8F480E84CD5CB
S113035085E790E089D580EC47D584E890E084D5A2
S113036080E071DF86319105D8F381E03DD58FE9D6
S11303709FE00197F1F700C00000089504C07DD606
S1130380882321F4ACD5D4D58130C9F7089585E00C
S11303905ADF23E08335920750F181E025D58FE9B8
S11303A09FE00197F1F700C0000080E81DD581E9C6
S11303B090E05AD581EC18D582EA90E055D581EBCE
S11303C090E018D6F8941BBC1ABCC5988EB58D7FE6
S11303D08EBDD4DF88ED90E00DD628E088E190E072
S11303E00FB6F894A89581BD0FBE21BDFFCF089527
S11303F04F925F926F927F928F929F92AF92BF9231
S1130400CF92DF92EF92FF920F931F936B017C01C7
S1130410042F122F442339F084ECE6D4112319F06D
S113042084EE90E0E7D5C701B60120E137E240E071
S113043050E0A0D62B013C01822F612F1ADF68EE19
S1130440862E63E0962EA12CB12CC301B201A50126
S1130450940190D6822F612F0CDFC701B601A5014C
S1130460940188D654E6852E912CA12CB12CA5019B
S1130470940180D6822F612FFCDEC701B601A5014D
S1130480940178D64AE0842E912CA12CB12CA5019C
S1130490940170D6822F612FECDEC701B601A5014D
S11304A0940168D6862F612FE4DE002341F01123E6
S11304B019F08FEE90E09ED586EF90E0D5D41F9191
S11304C00F91FF90EF90DF90CF90BF90AF909F90EF
S11304D08F907F906F905F904F900895CF92DF92AE
S11304E0EF92FF921F93182FAA9A84E87DD48AEF83
S11304F090E080D570E1C72E7EE0D72EE12CF12C60
S113050019C084E871D485E091E0AED4112381F060
S11305106091E0027091E1028091E2029091E30225
S1130520A701960127D6CA01B90141E020E060DFA6
S113053008DF2DDF80E087DE23E08338920710F4A4
S11305409B9BDFCFAA98112341F180E84DD48EE024
S113055091E08AD48FE191E04DD56091E0027091F1
S1130560E1028091E2029091E30220E13EE040E06A
S113057050E000D6CA01B90141E020E039DFFEDED7
S113058088ED90E037D528E088E190E00FB6F89444
S1130590A89581BD0FBE21BDFFCF1F91FF90EF90A5
S11305A0DF90CF900895EF92FF920F931F932091C5
S11305B0CC023091CD0240E050E08091E80290916D
S11305C0E902A091EA02B091EB0282179307A40713
S11305D0B50708F06AC082E391E00CD56091E802A7
S11305E07091E9028091EA029091EB0268DE80E466
S11305F091E000D58FEF93EDA0E381509040A040AF
S1130600E1F700C00000F8941BBC1ABCC59889B778
S11306108F7789BF81E0E8D3AFE9BFE01197F1F7A5
S113062000C0000081E8E0D384E491E01DD483E5B8
S113063091E0E0D46091E0027091E1028091E202E5
S11306409091E302E0E1EE2EEEE0FE2E012D112D5D
S1130650A80197018FD5CA01B90141E021E0C8DEA4
S11306606091E0027091E1028091E2029091E302D4
S1130670A80197017FD580E090E0BA01A901EED5E9
S11306808FEF99E6A8E181509040A040E1F700C0C7
S1130690000080E8A9D384E691E0E6D38CE8A4D3F3
S11306A084E691E0E1D381E019DF1F910F91FF907F
S11306B0EF9008952F923F924F925F926F927F92A4
S11306C08F929F92AF92BF92CF92DF92EF92FF925E
S11306D00F931F93DF93CF9300D0CDB7DEB79A83E8
S11306E089831B012A0139010F70802F80687CD314
S11306F0C201BAD389819A81ACD5F3017183608335
S11307008F898093EE02C20175D489E691E072D498
S1130710C40170D4F3018081918108EE13E0B80123
S113072015D5862F805D40D48CE23ED4F3018081C0
S11307309181B8010BD564E670E008D5862F805D01
S113074033D4C50157D4F4E68F2E912CF1D3809382
S1130750EC0290D4882321F090D48093ED0294DCB1
S11307608091EC02833051F4F301808191818C15E6
S11307709D0520F4820D931D918380838091EC026A
S1130780843051F4F30180819181E816F90620F454
S113079082199309918380838091EC02813021F046
S11307A08091F102882391F18091F102882349F02C
S11307B08091EF029091F002F30191838083109273
S11307C0F102F3014081518160E070E089819A81F6
S11307D045D581E009D38FE99FE00197F1F700C087
S11307E000000F900F90CF91DF911F910F91FF9018
S11307F0EF90DF90CF90BF90AF909F908F907F90BD
S11308006F905F904F903F902F90089585ECECD2BD
S113081081E0F1D2F30180819181B80197D4862FD0
S1130820805DE9D28CE2E7D2F30180819181B80145
S11308308DD4B4018BD4862F805DDDD280E0DBD2F1
S11308404ED384CF1F920F920FB60F9211248F9321
S11308509F93AF93BF938091D2029091D302A091C2
S1130860D402B091D5020196A11DB11D8093D2028C
S11308709093D302A093D402B093D50281E08093E5
S1130880D602BF91AF919F918F910F900FBE0F90A1
S11308901F9018952F923F924F925F926F927F9282
S11308A08F929F92AF92BF92CF92DF92EF92FF927C
S11308B00F931F93DF93CF9300D000D000D0CDB718
S11308C0DEB706D381E060E875E237D3D0DB9AD295
S11308D0AFDC85E886B98CE691E08CD387B382627D
S11308E087BB84B3847D84BB84B3846184BB86E288
S11308F090E060E0CCD28EE290E061E0C8D28EE776
S113090091E078D380E090E0A4D46093D80270930F
S1130910D9028093DA029093DB0281E865D28EE7F4
S113092091E0A2D284EC60D26091D8027091D90295
S11309308091DA029091DB0240E021E059DD86EFFC
S113094090E092D28FEE90E055D3AC9A8FEF91EE77
S1130950A4E081509040A040E1F700C00000AC98B2
S11309608FEF98E0ADE381509040A040E1F700C0E4
S1130970000081E039D2AFE9BFE01197F1F700C080
S11309800000DFDC80E05FDCB3E08E389B07A0F57D
S113099080E82AD28DE891E067D280EC25D284E900
S11309A091E062D281EA91E025D3C2D28093EC0235
S11309B064D38093ED029091EC02933021F0893559
S11309C011F0893721F481E08093D7020DC094306F
S11309D031F0913021F08E3411F08E3619F41092EA
S11309E0D70202C07CD2E1CF81E0FED1EFE9FFE083
S11309F03197F1F700C000000F9282E0ADB7BEB7A7
S1130A0011968C9384E090E064E670E04DEB51E045
S1130A102EEC32E004E010E0A4E6EA2EF12CF0ED36
S1130A20CF2EF7E0DF2EE6ECAE2EE1E0BE2EBAEFDD
S1130A308B2EB1E09B2E3EDE81E0EDB7FEB78183C5
S1130A4088E090E064E670E049E052E02CEC32E0AB
S1130A5002E010E0A4ECEA2EA9E0FA2EFCEACF2E84
S1130A60FDE0DF2EE6E1AE2EE2E0BE2E23DE0F90A7
S1130A708091D702882351F081E0B6D18FE99FE0BD
S1130A800197F1F700C0000080E028DD8BE492E0DC
S1130A90B1D280E8A9D180E792E0E6D180ECA4D17C
S1130AA08FE792E0E1D16ADC8EE892E0A3D281E0A4
S1130AB09BD1AFE9BFE01197F1F700C000008CE9CA
S1130AC092E098D28FB580688FBD8FB583608FBD5B
S1130AD08EB582608EBD8091CE029091CF0264E685
S1130AE070E034D32CE230E0629FC001639F900D2C
S1130AF0729F900D11249BBD8ABDC59A89B78064ED
S1130B0089BF78940AE0802E912CA12CB12C1E016F
S1130B100894211C311C18EE412E13E0512E612C37
S1130B20712C35DC8091D602882309F4FEC080E064
S1130B308ADBBC0180E090E028E531EF46E050E03C
S1130B40E6D228E13CE94FE050E036D3CA01B901CE
S1130B502AE030E040E050E0DAD26093E80270939B
S1130B60E9028093EA029093EB0281E06CDB9C0142
S1130B70880F991FA3E0220F331FAA95E1F7820F74
S1130B80931F9C0140E050E02093E4023093E5027F
S1130B904093E6025093E7028091E0029091E102D3
S1130BA0A091E202B091E302820F931FA41FB51F2C
S1130BB08093E0029093E102A093E202B093E302F7
S1130BC0E8DAA1012AE030E012D3C10113D280E2B5
S1130BD0EBD180E809D16091E8027091E90280913B
S1130BE0EA029091EB026BDB88EC92E03DD180E26B
S1130BF0DBD186E8F9D06091E4027091E50280913E
S1130C00E6029091E702A3019201B4D2822F28DB7D
S1130C108EE2F1D08EE2C8D16091E4027091E502D7
S1130C208091E6029091E702A3019201A3D224E607
S1130C3030E040E050E09ED2822F12DB6091E4026B
S1130C407091E5028091E6029091E702A30192017E
S1130C5091D224E630E040E050E08CD2A50194012A
S1130C6089D2822F805DA0D18AEC92E0FDD080E20F
S1130C709BD18BE8B9D08DDA2CE330E040E050E032
S1130C8079D279018A012093DC023093DD0240930A
S1130C90DE025093DF02CA01B90128E532E040E0E8
S1130CA050E068D2D22EC801B7012CE330E040E016
S1130CB050E060D2CA01B901A50194015BD28D2D27
S1130CC0EDDA8AE371D18AE396D06091DC02709107
S1130CD0DD028091DE029091DF022CE330E040E0FF
S1130CE050E048D2A501940145D2822FD7DA80E2A0
S1130CF05BD180EC79D06091E0027091E102809147
S1130D00E2029091E30220E13EE040E050E032D282
S1130D10CA01B90140E021E06BDB86EF90E0A4D08A
S1130D2089E691E067D11092D6023DDCFACE282FF5
S1130D30207F922F24FF02C0C09A01C0C09895FF63
S1130D4002C0959A01C0959896FF02C0969A01C078
S1130D50969827FF02C0979A01C09798C39A95E086
S1130D609A95F1F70000C3988295807F982F84FFAD
S1130D7002C0C09A01C0C09895FF02C0959A01C0F4
S1130D80959896FF02C0969A01C0969887FF02C074
S1130D90979A01C09798C39A85E08A95F1F7000065
S1130DA0C39808959AE69A95F1F700C0C498807F95
S1130DB0982F84FF02C0C09A01C0C09895FF02C05A
S1130DC0959A01C0959896FF02C0969A01C096988C
S1130DD087FF02C0979A01C09798C39A85E08A95C5
S1130DE0F1F70000C39808959AE69A95F1F700C0C8
S1130DF0C4989DDF08959AE69A95F1F700C0C49AC5
S1130E0096DF0895B89A8D9A8E9A8F9ABC9ABB9A57
S1130E108FEF99EFA0E081509040A040E1F700C02F
S1130E20000080E3BFDFAFE1BEE41197F1F700C03B
S1130E30000080E3B7DF8FE99FE00197F1F700C07E
S1130E40000080E3AFDF88E2ADDF88E2CDDF8CE035
S1130E50CBDF81E0C9DFAFE9BFE01197F1F700C054
S1130E60000086E0C1DF0895EF92FF92CF93DF93F5
S1130E70E82EE7017E01F92EE70101C0BCDF89916C
S1130E808823E1F7DF91CF91FF90EF9008950F93BE
S1130E901F93CF93DF93EC01862F90E087709070BF
S1130EA023E0880F991F2A95E1F780649DDF00E015
S1130EB010E0FE01E00FF11F84919DDF0F5F1F4FD3
S1130EC008301105B1F7DF91CF911F910F9108956B
S1130ED081B3827E81BB82B38D6182BB0895829B84
S1130EE006C0839B06C0849920C094E003C091E0AF
S1130EF001C093E08091F302843189F48EE1809300
S1130F00F3029093F202AC9A8FEF90E7A2E0815043
S1130F109040A040E1F700C00000AC9808958931EA
S1130F2030F48F5F8093F30208951092F3020895D2
S1130F308091F2021092F20208951F931FB7F89461
S1130F401092190310920803109207031092F502ED
S1130F50109206031092F4021AB810BC9B0140E0F0
S1130F6050E0882341F494E0220F331F441F551F9F
S1130F709A95D1F707C083E0220F331F441F551FF2
S1130F808A95D1F760E072E18AE790E0F3D02150CE
S1130F90304030BD29B982E08BB988E98AB986E846
S1130FA080BD1FBF1F910895909107039031E1F315
S1130FB0F89490910703992309F4559A90910703A3
S1130FC09031B0F4E0911903F0E0E75FFC4F8083C7
S1130FD0809107038F5F80930703809119038F5FCC
S1130FE08093190380911903803111F4109219032D
S1130FF078940895EF92FF92CF93DF93E82EE70160
S11310007E01F92EE70101C0CFDF89918823E1F742
S1131010DF91CF91FF90EF9008951F920F920FB63A
S11310200F9211248F93EF93FF93809107038823EA
S1131030C1F0E0910803F0E0E75FFC4F80818CB9D8
S113104080910703815080930703809108038F5F89
S11310508093080380910803803121F410920803DF
S113106001C05598FF91EF918F910F900FBE0F9093
S11310701F9018958091F40208958091F4028823BA
S1131080B9F0E0910603F0E0EA50FD4F80819091C1
S1131090F40291509093F402909106039F5F909311
S11310A0060390910603903121F4109206030895EB
S11310B080E008951F920F920FB60F9211248F9320
S11310C09F93EF93FF938CB19091F4029031B0F41D
S11310D0E091F502F0E0EA50FD4F80838091F50243
S11310E08F5F8093F5028091F502803111F41092A4
S11310F0F5028091F4028F5F8093F402FF91EF91E7
S11311009F918F910F900FBE0F901F901895629F23
S1131110D001739FF001829FE00DF11D649FE00DEB
S1131120F11D929FF00D839FF00D749FF00D659F4C
S1131130F00D9927729FB00DE11DF91F639FB00D4B
S1131140E11DF91FBD01CF0111240895AA1BBB1B8A
S113115051E107C0AA1FBB1FA617B70710F0A61BB3
S1131160B70B881F991F5A95A9F780959095BC01D4
S1131170CD010895A1E21A2EAA1BBB1BFD010DC0CF
S1131180AA1FBB1FEE1FFF1FA217B307E407F50733
S113119020F0A21BB30BE40BF50B661F771F881F0F
S11311A0991F1A9469F760957095809590959B01A5
S11311B0AC01BD01CF01089597FB092E05260ED081
S11311C057FD04D0D7DF0AD0001C38F45095409561
S11311D0309521953F4F4F4F5F4F0895F6F7909507
S11311E08095709561957F4F8F4F9F4F0895FA01B9
S11311F0CF93FF93EF9322303CF125322CF5C22F8D
S1131200E894CA3049F497FB3EF490958095709524
S113121061957F4F8F4F9F4F2C2F3327442755279E
S1131220FF93EF93A7DFEF91FF91605D6A330CF0BA
S1131230695D6193B901CA0160507040804090407B
S113124059F716F4CDE2C19310828F919F91CF91FB
S11312500DC0A6E1B0E044E050E01AC0242F27D02E
S1131260252F25D000C022D0272F21C0DC01FC016E
S1131270672F71917723E1F7329704C07C916D93C6
S113128070836291AE17BF07C8F30895DC01CB01E8
S1131290FC01E199FECF06C0FFBBEEBBE09A31969C
S11312A00DB20D9241505040B8F70895262FE199A0
S11312B0FECF9FBB8EBB2DBB0FB6F894E29AE19A8A
S10D12C00FBE01960895F894FFCFC5
S11312CA4F4B0D0A00496E76616C69642076616C35
S11312DA75650D0A00506C6561736520636F6E6EE7
S11312EA6563740074686520626174746572792038
S11312FA00486967682074656D70657261747572F7
S113130A6500456E746572202D207265626F6F7474
S113131A00437269746963616C2074656D706572E7
S113132A6172757265212121205465737420537486
S113133A6F707065640D0A005265626F6F74696E2E
S113134A670D0A0043617061636974793A20002069
S113135A6D41680D0A006D416800436861726769EE
S113136A6E670D0A004368617267696E67004675A5
S113137A6C6C206368617267656421203A290046AF
S113138A756C6C206368617267656421203A290D63
S113139A0A004C6F7720766F6C746167653A200097
S11313AA560D0A005465737420636F6D706C65740E
S11313BA6564005465737420636F6D706C6574653D
S11313CA640D0A0020202020000D0A00496E697469
S11313DA69616C697A696E672E2E2E0D0A004C615A
S11313EA73742063617061636974793A0043686154
S11313FA7267650074686520626174746572793F06
S113140A0043686172676520746865206261747458
S113141A6572793F2028592F4E290D0A00437572A7
S113142A72656E743A000D0A53656E642076616CB7
S113143A7565203130302D32303030207769746848
S113144A20737465702031303020286F72207365E0
S113145A6E64206F6B293A0D0A0044656661756CE7
S113146A742076616C75653A00456E6420766F6CFB
S113147A746167653A000D0A53656E642076616C7F
S113148A756520323530302D333530302077697424
S113149A6820737465702031303020286F7220738D
S11314AA656E64206F6B293A0D0A00507265737376
S11314BA20616E79206B657920746F207374617270
S11314CA742074686520746573742E2E2E0D0A00B8
S11314DA507265737320737461727420746F00623E
S11314EA6567696E20746865207465737400537443
S11314FA617274696E672E2E2E0D0A005365636F2E
S113150A6E6473207C20566F6C74616765207C203E
S113151A416D706572616765207C2054696D652030
S113152A7C206D41680D0A0056004100C409E80395
S9030000FC
