:100000001AC034C033C032C063C530C02FC02EC048
:100010002DC02CC02BC0E6CA98CA28C027C026C055
:1000200025C024C023C002040810080402000804EC
:1000300002010204080011241FBECFE5D4E0DEBF98
:10004000CDBF13E0A0E6B0E0E4ECF7E102C005901C
:100050000D92A430B107D9F713E0A4E0B3E001C0DA
:100060001D92A138B107E1F75BD5AACBC9CFB89AE9
:10007000BB9ABC9AC098C398C49808952091040371
:1000800088E090E027FF02C0C09A01C0C098C39AE0
:10009000C398019711F0220FF5CFC49AC498089520
:1000A000FA01EC5FFC4F6115710551F021E030E081
:1000B00002C0220F331F8A95E2F78081822B0AC08B
:1000C00021E030E002C0220F331F8A95E2F720952D
:1000D000808182238083D2DF08956C5F7C4FFB0197
:1000E0008083CCDF0895FC01EC5FFC4F8081089594
:1000F0001092700381E793E090936D0380936C03FB
:1001000010920603109205030895909105038D3017
:1001100009F44AC09F3008F040C0803279F1209144
:100120007003222349F421E733E030936D032093D9
:100130006C0321E020937003209106032223A9F091
:1001400040917003423078F4E42FF0E0EE0FFF1F8F
:10015000E459FC4F292F30E02F583C4F3183208346
:100160004F5F4093700310920603A92FB0E0AF5881
:10017000BC4F8C939F5F909305030FC08091060343
:10018000882359F4A92FB0E0AF58BC4F1C929F5F51
:100190009093050381E080930603E0910503F0E06E
:1001A000EF58FC4F10820895E92FF0E0EF58FC4F14
:1001B000108280917003882319F06CE673E037D0C9
:1001C0001092700310920603109205030895E82F11
:1001D000F92F3E2F2F2F81918033D9F3C901E92FB9
:1001E000F82F20E030E011C090E0C097280F391FB1
:1001F0008081882351F0C901880F991F43E0220FA5
:10020000331F4A95E1F7280F391F8191882361F741
:10021000C9010895F8942091070330910803409193
:10022000090350910A037894B901CA0108951F93F4
:10023000FB0180819181CBDF90932603809325037E
:10024000109124031130A9F49C01245C3940F3E09F
:10025000293E3F0758F464E670E010DA009731F465
:1002600080E690E05FD91093280303C085E690E014
:1002700059D9809124038230D1F480912503909143
:1002800026039C012456304047E02D36340760F4A5
:1002900064E670E0F3D9009739F480E690E042D943
:1002A00081E08093280303C085E690E03BD91F914D
:1002B000089589B78F7789BF82B5886082BD14BCE5
:1002C00085B5856085BD089587B98AE18A95F1F77E
:1002D00000C0E4E660E070E0CB01369A349BFECFCC
:1002E000349A24B135B140E050E0620F731F841F8F
:1002F000951FE15091F724E630E040E050E0D2D97C
:10030000C90108951F93182F105D812F51D7812F98
:10031000E3D81F9108951F93DF93CF930F92CDB72A
:10032000DEB7182F105D812F698342D7698166235C
:1003300011F0812FD1D80F90CF91DF911F910895A7
:100340000F931F93162F082F005D802F31D7105D5C
:10035000812F2ED7802FC0D8812FBED81F910F910B
:100360000895AF92BF92CF92DF92EF92FF920F93D8
:100370001F937B018C0120EA36E841E050E092D9DE
:1003800020E137E240E050E08DD92093270322237B
:1003900011F0822FB7DFC801B70120E137E240E05A
:1003A00050E080D938EEA32E33E0B32EC12CD12CEF
:1003B000A601950177D9822FA5DF8EE2F9D68EE2CC
:1003C0008BD8C801B701A60195016CD924E6A22EED
:1003D000B12CC12CD12CA601950164D9822F92DFBA
:1003E00080912703882361F4C801B701A601950114
:1003F00059D92AE030E040E050E054D9822F82DF22
:100400001F910F91FF90EF90DF90CF90BF90AF9032
:10041000089582E059DF90932A038093290321E015
:100420008B3D920740F080912B03882381F481E07B
:1004300080932B030CC021E08A35920740F4809111
:100440002B03882321F010922B0319BC18BC809138
:100450002B038823C1F06091290370912A0380E067
:1004600090E02FEF31E040E050E0E9D84AE0959588
:100470008795779567954A95D1F760507E4F8F4F56
:100480009F4F79BD68BD08950F931F93182F062FB6
:1004900080E01ADF8732910508F04FC081E077D6FF
:1004A0008FE99FE00197F1F700C0000080E86FD668
:1004B00085E790E0B1D680EC6AD684E890E0ACD6CF
:1004C0001BBC1ABC002361F086E090E060E070E0A5
:1004D00040E050E0E5DD89B78F7B89BF01C099DF3F
:1004E00080E0F2DE87329105D0F30023E1F086E070
:1004F00090E061E070E040E050E0D2DD89B78064D8
:1005000089BF809101039091020364E670E0B6D840
:100510004CE250E0649F9001659F300D749F300D58
:1005200011243BBD2ABD112341F081E030D68FE973
:100530009FE00197F1F700C000001F910F9108950F
:10054000109221031092220308C07CD731D78093E8
:1005500021032ED7809322035CDF80912103813019
:10056000A1F780912203813081F7089585E0ACDE08
:1005700022E08637920778F181E009D68FE99FE083
:100580000197F1F700C0000080E801D681E990E012
:1005900043D681ECFCD582EA90E03ED681EB90E038
:1005A000C1D71BBC1ABC89B78F7B89BF86E090E09E
:1005B00060E070E040E050E073DDC2DF88ED90E085
:1005C000B1D728E088E190E00FB6F894A89581BDF6
:1005D0000FBE21BDFFCF08954F925F926F927F9221
:1005E0008F929F92AF92BF92CF92DF92EF92FF9243
:1005F0000F931F936B017C01042F122F442339F0BA
:1006000084ECC5D5112319F084EE90E08BD7C70197
:10061000B60120E137E240E050E044D82B013C0134
:10062000822F612F78DEF8EE8F2EF3E09F2EA12C23
:10063000B12CC301B201A501940134D8822F612FDE
:100640006ADEC701B601A50194012CD8E4E68E2E1E
:10065000912CA12CB12CA501940124D8822F612FBB
:100660005ADEC701B601A50194011CD85AE0852EB7
:10067000912CA12CB12CA501940114D8822F612FAB
:100680004ADEC701B601A50194010CD8862F612F5F
:1006900042DE002341F0112319F08FEE90E042D7A3
:1006A00086EF90E0B9D51F910F91FF90EF90DF900A
:1006B000CF90BF90AF909F908F907F906F905F9002
:1006C0004F900895CF92DF92EF92FF921F93182FD1
:1006D00087E090E061E070E040E050E0E1DC84E839
:1006E00056D58AEF90E01ED7A0E1CA2EAEE0DA2EF2
:1006F000E12CF12C1CC084E84AD585E091E08CD532
:10070000112389F086DE60911503709116038091A4
:10071000170390911803A7019601C4D7CA01B90124
:1007200041E020E059DF81E060E0AEDE1FDF80E0E5
:10073000CBDD26E08E33920710F49B9BDCCF87E065
:1007400090E060E070E040E050E0AADC112341F16D
:1007500080E81DD58EE091E05FD58FE191E0E2D693
:1007600060911503709116038091170390911803FF
:1007700020E13EE040E050E095D7CA01B90141E0F8
:1007800020E02ADFDDDE88ED90E0CCD628E088E1AD
:1007900090E00FB6F894A89581BD0FBE21BDFFCFA4
:1007A0001F91FF90EF90DF90CF900895EF92FF920E
:1007B0000F931F932091FF023091000340E050E01F
:1007C00080911D0390911E03A0911F03B0912003FF
:1007D00082179307A407B50708F09EC082E391E053
:1007E000A1D660911D0370911E0380911F0390910B
:1007F000200320E137E240E050E054D738EEE32E0A
:1008000033E0F32E012D112DA80197014BD7822F34
:1008100063D68EE261D660911D0370911E038091B4
:100820001F0390912003A80197013CD724E6E22EF4
:10083000F12C012D112DA801970134D7822F4CD610
:1008400060911D0370911E0380911F0390912003FE
:10085000A801970127D72AE030E040E050E022D7F6
:10086000822F3AD680E491E05DD61BBC1ABC86E0AC
:1008700090E060E070E040E050E012DC89B78F77F4
:1008800089BF81E084D48FE99FE00197F1F700C030
:10089000000081E87CD484E491E0BED483E591E05B
:1008A00041D66091150370911603809117039091C2
:1008B0001803B0E1EB2EBEE0FB2E012D112DA80197
:1008C0009701F0D6CA01B90141E021E085DE6091CF
:1008D0001503709116038091170390911803A801D6
:1008E0009701E0D680E090E0BA01A90134D78FEFFC
:1008F00099E6A8E181509040A040E1F700C00000D7
:1009000080E845D484E691E087D48CE840D484E63E
:1009100091E082D481E0D6DE1F910F91FF90EF909D
:1009200008952F923F924F925F926F927F928F9293
:100930009F92AF92BF92CF92DF92EF92FF920F936E
:100940001F93DF93CF9300D0CDB7DEB79A8389830F
:100950001B012A0139010F70802F806818D4C20151
:100960005BD489819A81F2D6F301718360838F8988
:1009700080932403C201D6D589E691E0D3D5C40182
:10098000D1D5F3018081918108EE13E0B80176D6CC
:10099000862F805DA1D58CE29FD5F3018081918166
:1009A000B8016CD664E670E069D6862F805D94D578
:1009B000C501B8D544E6842E912CFAD48093210346
:1009C000F7D480932203EED5882321F0EED58093CF
:1009D00023039BDB80912103823071F480912203F9
:1009E000813051F4F301808191818C159D0520F4B3
:1009F000820D931D9183808380912103833071F454
:100A000080912203813051F4F30180819181E816B5
:100A1000F90620F482199309918380838091210340
:100A2000813021F480912203813021F080912803CC
:100A3000882391F180912803882349F08091250330
:100A400090912603F3019183808310922803F30190
:100A50004081518160E070E089819A817CD681E09B
:100A600096D38FE99FE00197F1F700C000000F9047
:100A70000F90CF91DF911F910F91FF90EF90DF903A
:100A8000CF90BF90AF909F908F907F906F905F902E
:100A90004F903F902F90089585EC79D381E088D3D3
:100AA000F30180819181B801E9D5862F805D80D3E3
:100AB0008CE27ED3F30180819181B801DFD5B4014E
:100AC000DDD5862F805D74D380E072D3BBD475CF23
:100AD0001F920F920FB60F9211248F939F93AF9393
:100AE000BF938091070390910803A0910903B091EF
:100AF0000A030196A11DB11D80930703909308037B
:100B0000A0930903B0930A0381E080930B03BF9184
:100B1000AF919F918F910F900FBE0F901F901895DE
:100B20002F923F924F925F926F927F928F929F92FD
:100B3000AF92BF92CF92DF92EF92FF920F931F93EB
:100B4000DF93CF9300D000D000D0CDB7DEB745D42F
:100B500081E060E875E289D4CBDA81E090E087DA61
:100B600038D3A7DB85E886B98CE691E0DBD487B380
:100B7000866087BB84B3847D84BB86E290E060E0BE
:100B80005ED38EE290E061E05AD38EE791E0CAD462
:100B900080E090E0DBD560930D0370930E038093AB
:100BA0000F039093100381E8F2D28EE791E034D3E3
:100BB00084ECEDD260910D0370910E0380910F03D0
:100BC0009091100340E021E007DD86EF90E024D310
:100BD0008FEE90E0A7D48FEF98E0ADE38150904086
:100BE000A040E1F700C0000080E060E04DDC80E064
:100BF0006BDBA6E082359A0708F047C081E0C7D2D8
:100C0000EFE9FFE03197F1F700C0000080E8BFD2C4
:100C10008DE891E001D380ECBAD284E991E0FCD276
:100C200081EA91E07FD4C4D380932103C1D3809320
:100C30002203BBD48093230390912103923021F4AB
:100C400020912203213021F0893511F0893721F4D8
:100C500081E080930C0311C0933011F0913021F4A6
:100C600090912203913021F08E3411F08E3619F4D8
:100C700010920C0302C0E6D3D6CF81E088D28FE970
:100C80009FE00197F1F700C000000F9282E0ADB73E
:100C9000BEB711968C9384E090E064E670E04DEB73
:100CA00051E021E033E004E010E0A4E6EA2EF12C6C
:100CB000F0EDCF2EF7E0DF2EE6ECAE2EE1E0BE2E1B
:100CC000BAEF8B2EB1E09B2E2CDE81E0EDB7FEB7A4
:100CD000818388E090E064E670E049E052E02FEF25
:100CE00032E002E010E0A4ECEA2EA9E0FA2EFCEAE1
:100CF000CF2EFDE0DF2EE6E1AE2EE2E0BE2E11DECD
:100D00000F9080910C03882351F081E040D28FE94D
:100D10009FE00197F1F700C0000080E0D3DC8BE496
:100D200092E000D480E833D280E792E075D280EC84
:100D30002ED28FE792E070D203DC8EE892E0F2D3FD
:100D400081E025D2AFE9BFE01197F1F700C00000C4
:100D50008CE992E0E7D38FB5806A8FBD8FB5836051
:100D60008FBD8EB582608EBD80910103909102038C
:100D700064E670E083D42CE230E0629FC001639FA0
:100D8000900D729F900D11249BBD8ABD19BC18BC9B
:100D900086E090E061E070E040E050E081D989B702
:100DA000806489BF78941E010894211C311CB8EE20
:100DB0008B2EB3E09B2EA12CB12CAAE04A2E512CF5
:100DC000612C712C26DB81E061E05EDBCFDB809162
:100DD0000B03882309F4FCC080E076DA9C01220F23
:100DE000331F280F391F3F73C901880F991F73E004
:100DF000220F331F7A95E1F7820F931FA0E0B0E036
:100E000080931D0390931E03A0931F03B0932003B0
:100E100081E05ADA9C01880F991F53E0220F331F9B
:100E20005A95E1F7820F931F9C0140E050E0209318
:100E3000190330931A0340931B0350931C038091B2
:100E4000150390911603A0911703B0911803820F18
:100E5000931FA41FB51F8093150390931603A093AF
:100E60001703B0931803D6D9A1012AE030E03CD48F
:100E7000C10158D380E230D380E889D160911D034D
:100E800070911E0380911F03909120036ADA88EC11
:100E900092E0C2D180E220D386E879D16091190333
:100EA00070911A0380911B0390911C03A50194017A
:100EB000F9D3822F27DA8EE27BD18EE20DD36091B7
:100EC000190370911A0380911B0390911C03A501D3
:100ED0009401E8D324E630E040E050E0E3D3822FF1
:100EE00011DA6091190370911A0380911B0390919C
:100EF0001C03A5019401D6D324E630E040E050E085
:100F0000D1D3A3019201CED3822F805DE5D28AECAA
:100F100092E082D180E2E0D28BE839D17BD92CE318
:100F200030E040E050E0BED379018A012093110304
:100F3000309312034093130350931403CA01B90171
:100F400028E532E040E050E0ADD3D22EC801B70131
:100F50002CE330E040E050E0A5D3CA01B901A30181
:100F60009201A0D38D2DECD98AE3B6D28AE320D1A9
:100F700060911103709112038091130390911403F7
:100F80002CE330E040E050E08DD3A30192018AD3FE
:100F9000822FD6D980E2A0D280ECF9D060911503DF
:100FA00070911603809117039091180320E13EE0A1
:100FB00040E050E077D3CA01B90140E021E00CDB0A
:100FC00086EF90E029D189E691E0ACD210920B0334
:100FD00039D2EED180932103EBD1809322039091FB
:100FE0002103913009F053C0813009F050C01BBC7F
:100FF0001ABC86E090E060E070E040E050E050D83D
:1010000089B78F7B89BF8CEC92E08CD289ECBFD002
:101010008DED92E001D1109221031092220308C0BD
:1010200011D2C6D180932103C3D180932203F1D979
:10103000809121038130A1F780912203813081F7D3
:101040008CE691E06FD2809101039091020364E6F7
:1010500070E014D3ECE2F0E06E9FC0016F9F900D42
:101060007E9F900D11249BBD8ABD86E090E061E0DB
:1010700070E040E050E014D889B7806489BF89EC03
:1010800086D084EE92E0C8D08BEE92E04BD28EDB1D
:1010900099CE1F93182F80E090E025D8282F30E0BC
:1010A000237C3070412F407F4695469550E0C90122
:1010B000842B952B60E070E010D880E090E061E038
:1010C00070E040E050E0ECD785E08A95F1F7000051
:1010D00080E090E060E070E040E050E0E1D7129501
:1010E00080E090E000D8282F30E0237C3070107F23
:1010F00016951695812F90E0822B932B60E070E07F
:10110000ECD780E090E061E070E040E050E0C8D7CC
:1011100085E08A95F1F7000080E090E060E070E003
:1011200040E050E0BDD71F9108951F93182F8AE625
:101130008A95F1F700C081E090E060E070E040E067
:1011400050E0AED780E090E0CED7282F30E0237C6F
:101150003070107F16951695812F90E0822B932B7F
:1011600060E070E0BAD780E090E061E070E040E0DD
:1011700050E096D785E08A95F1F7000080E090E096
:1011800060E070E040E050E08BD71F9108951F931E
:10119000182F8AE68A95F1F700C081E090E060E0C0
:1011A00070E040E050E07CD7812F73DF1F910895FD
:1011B0001F93182F8AE68A95F1F700C081E090E02E
:1011C00061E070E040E050E06BD7812F62DF1F915B
:1011D000089580E3AADF8FE19EE40197F1F700C054
:1011E000000080E3A2DF8FE99FE00197F1F700C0E4
:1011F000000080E39ADF88E298DF88E2C8DF8CE0B5
:10120000C6DF81E0C4DF8FE99FE00197F1F700C0FE
:10121000000086E0BCDF0895EF92FF92CF93DF934A
:10122000E82EE7017E01F92EE70101C0C1DF8991B7
:101230008823E1F7DF91CF91FF90EF9008950F930E
:101240001F93CF93DF93EC01862F90E0877090700F
:1012500023E0880F991F2A95E1F7806498DF00E06A
:1012600010E0FE01E00FF11F8491A2DF0F5F1F4F1E
:1012700008301105B1F7DF91CF911F910F910895BB
:1012800020913B03283078F490913C03E92FF0E063
:10129000E35CFC4F80832F5F20933B03892F8F5F9C
:1012A000877080933C0308950F931F93CF93DF9330
:1012B000962F9150C92FD0E0FE01E45DFC4F1081C4
:1012C000FE01E15DFC4F908190933203FE01EE0F31
:1012D000FF1FED5CFC4F2081318130933A03209356
:1012E00039038823F1F081E0253F3807C0F52F5FEF
:1012F0003F4F30933A03209339032B30310578F177
:1013000010FD05C0116040FF02C001E001C000E017
:1013100081E0253F380721F511FD22C01B7F1260B7
:101320001FC010FF0CC011FD0AC012FF05C01B7FBB
:1013300044FF05C005E004C010923203146000E0D1
:1013400012FF07C080913203893C18F010923203DB
:101350001B7F10923A03109239031C7F01C000E0FA
:1013600012FF07C080913203893C18F48F5F80938D
:101370003203FE01E15DFC4F809132038083002344
:1013800021F0862F7DDF802F7BDFFE01EE0FFF1F18
:10139000ED5CFC4F8091390390913A0391838083F7
:1013A000C45DDC4F1883DF91CF911F910F91089599
:1013B00020913B03222379F090914503E92FF0E03F
:1013C000E35CFC4F8081215020933B039F5F97702B
:1013D00090934503089580E008951092340310928D
:1013E000330310922C0310922F03109236031092A5
:1013F000350310922D03109230031092380310928F
:10140000370310922E031092310310923D03109275
:101410003E0310923F03109240031092410310923A
:101420004203109243031092440310923C03109223
:10143000450310923B038A9892988B9893988C98C6
:101440009498089581E0829980E061E041E12CDF89
:1014500081E0839980E062E041E026DF81E08499C9
:1014600080E063E041E020DF08951F931FB7F89408
:1014700010926B0310925A03109259031092470373
:1014800010925803109246031AB810BC9B0140E01A
:1014900050E0882341F494E0220F331F441F551F6E
:1014A0009A95D1F707C083E0220F331F441F551FC1
:1014B0008A95D1F760E072E18AE790E0F3D021509D
:1014C000304030BD29B982E08BB988E98AB986E815
:1014D00080BD1FBF1F910895909159039031E1F392
:1014E000F89490915903992309F4559A90915903CE
:1014F0009031B0F4E0916B03F0E0E55AFC4F80834B
:10150000809159038F5F8093590380916B038F5FA4
:1015100080936B0380916B03803111F410926B0305
:1015200078940895EF92FF92CF93DF93E82EE7012E
:101530007E01F92EE70101C0CFDF89918823E1F711
:10154000DF91CF91FF90EF9008951F920F920FB609
:101550000F9211248F93EF93FF9380915903882367
:10156000C1F0E0915A03F0E0E55AFC4F80818CB95C
:101570008091590381508093590380915A038F5F62
:1015800080935A0380915A03803121F410925A03B8
:1015900001C05598FF91EF918F910F900FBE0F9062
:1015A0001F901895809146030895809146038823E3
:1015B000B9F0E0915803F0E0E85BFC4F8081909136
:1015C0004603915090934603909158039F5F9093E8
:1015D000580390915803903121F4109258030895C4
:1015E00080E008951F920F920FB60F9211248F93EF
:1015F0009F93EF93FF938CB1909146039031B0F499
:10160000E0914703F0E0E85BFC4F80838091470363
:101610008F5F8093470380914703803111F41092CC
:101620004703809146038F5F80934603FF91EF91BC
:101630009F918F910F900FBE0F901F901895629FF2
:10164000D001739FF001829FE00DF11D649FE00DBA
:10165000F11D929FF00D839FF00D749FF00D659F1B
:10166000F00D9927729FB00DE11DF91F639FB00D1A
:10167000E11DF91FBD01CF0111240895AA1BBB1B59
:1016800051E107C0AA1FBB1FA617B70710F0A61B82
:10169000B70B881F991F5A95A9F780959095BC01A3
:1016A000CD010895A1E21A2EAA1BBB1BFD010DC09E
:1016B000AA1FBB1FEE1FFF1FA217B307E407F50702
:1016C00020F0A21BB30BE40BF50B661F771F881FDE
:1016D000991F1A9469F760957095809590959B0174
:1016E000AC01BD01CF010895FA01CF93FF93EF93B1
:1016F00022303CF125322CF5C22FE894CA3049F44F
:1017000097FB3EF490958095709561957F4F8F4F34
:101710009F4F2C2F332744275527FF93EF93C2DF8A
:10172000EF91FF91605D6A330CF0695D6193B901DF
:10173000CA01605070408040904059F716F4CDE2E5
:10174000C19310828F919F91CF910DC0A6E1B0E01F
:1017500044E050E01AC0242F27D0252F25D000C008
:1017600022D0272F21C0DC01FC01672F7191772344
:10177000E1F7329704C07C916D9370836291AE174C
:10178000BF07C8F30895DC01CB01FC01E199FECF4E
:1017900006C0FFBBEEBBE09A31960DB20D924150F0
:1017A0005040B8F70895262FE199FECF9FBB8EBB1E
:1017B0002DBB0FB6F894E29AE19A0FBE01960895F8
:0417C000F894FFCFCB
:1017C4004F4B0D0A00496E76616C69642076616C3A
:1017D40075650D0A00506C6561736520636F6E6EEC
:1017E400656374007468652062617474657279203D
:1017F40000486967682074656D70657261747572FC
:101804006500456E746572202D207265626F6F7479
:1018140000437269746963616C2074656D706572EC
:10182400617275726521212120546573742053748B
:101834006F707065640D0A005265626F6F74696E33
:10184400670D0A0043617061636974793A2000206E
:101854006D41680D0A006D416800436861726769F3
:101864006E670D0A004368617267696E67004675AA
:101874006C6C206368617267656421203A290046B4
:10188400756C6C206368617267656421203A290D68
:101894000A004C6F7720766F6C746167653A20009C
:1018A400560D0A005465737420636F6D706C657413
:1018B4006564005465737420636F6D706C65746542
:1018C400640D0A0020202020000D0A00496E69746E
:1018D40069616C697A696E672E2E2E0D0A004C615F
:1018E40073742063617061636974793A0043686159
:1018F4007267650074686520626174746572793F0B
:10190400004368617267652074686520626174745D
:101914006572793F2028592F4E290D0A00437572AC
:1019240072656E743A000D0A53656E642076616CBC
:101934007565203130302D3230303020776974684D
:1019440020737465702031303020286F72207365E5
:101954006E64206F6B293A0D0A0044656661756CEC
:10196400742076616C75653A00456E6420766F6C00
:10197400746167653A000D0A53656E642076616C84
:10198400756520323530302D333530302077697429
:101994006820737465702031303020286F72207392
:1019A400656E64206F6B293A0D0A0050726573737B
:1019B40020616E79206B657920746F207374617275
:1019C400742074686520746573742E2E2E0D0A00BD
:1019D400507265737320737461727420746F006243
:1019E4006567696E20746865207465737400537448
:1019F400617274696E672E2E2E0D0A005365636F33
:101A04006E6473207C20566F6C74616765207C2043
:101A1400416D706572616765207C2054696D652035
:101A24007C206D41680D0A005600410054657374B2
:101A34002073757370656E6465640D0A00504155BA
:101A44005345440020202020202000546573742036
:101A5400636F6E74696E7565642E2E2E0D0A00C454
:041A640009E803008A
:00000001FF
