:100000001AC034C033C032C09EC230C02FC02EC010
:100010002DC02CC02BC02AC029C028C027C026C094
:1000200025C024C023C002040810080402000804EC
:1000300002010204080011241FBECFE5D4E0DEBF98
:10004000CDBF12E0A0E6B0E0E8E7FEE002C0059018
:100050000D92AC33B107D9F712E0ACE3B2E001C0C6
:100060001D92A935B107E1F796D204C7C9CFF8941C
:1000700020913C0230913D0240913E0250913F025E
:100080007894B901CA01089589B78F7789BF82B57D
:10009000886082BD14BC85B5856085BD089589B929
:1000A00090BD86E880BD88E18AB908955D9BFECF4A
:1000B0008CB90895EF92FF92CF93DF93E82EE7017A
:1000C0007E01F92EE70101C0F1DF89918823E1F774
:1000D000DF91CF91FF90EF90089587B98AE18A95DB
:1000E000F1F700C0369A349BFECF349A24B135B173
:1000F000C90108951F93182F105D812F3DD5812FC1
:10010000D5DF1F9108951F93DF93CF930F92CDB743
:10011000DEB7182F105D812F69832ED56981662384
:1001200011F0812FC3DF0F90CF91DF911F910895C0
:100130000F931F93162F082F005D802F1DD5105D84
:10014000812F1AD5802FB2DF812FB0DF1F910F9141
:100150000895AF92BF92CF92DF92EF92FF920F93EA
:100160001F937B018C01442339F020E137E240E00A
:1001700050E0D7D5822FBEDFC801B70120E137E2BA
:1001800040E050E0CED538EEA32E33E0B32EC12CA4
:10019000D12CA6019501C5D5822FACDF8EE2ECD41F
:1001A0008EE284DFC801B701A6019501BAD524E625
:1001B000A22EB12CC12CD12CA6019501B2D5822F33
:1001C00099DFC801B701A6019501ABD52AE030E05F
:1001D00040E050E0A6D5822F8DDF1F910F91FF9058
:1001E000EF90DF90CF90BF90AF90089580E075DFE3
:1001F00086319105B8F480E8B8D480E690E0F5D473
:1002000080ECB3D48FE690E0F0D480E066DF8631F6
:100210009105D8F381E0A9D48FE99FE00197F1F728
:1002200000C00000089503C05F9904C019D541D5EE
:100230008130D1F7089585E050DF23E083359207C0
:1002400050F181E092D48FE99FE00197F1F700C06F
:10025000000080E88AD48CE790E0C7D481EC85D494
:100260008DE890E0C2D48CE990E024DFF8941BBCC8
:100270001ABCC5988EB58D7F8EBDD5DF83EC90E01E
:1002800019DF28E088E190E00FB6F894A89581BDC9
:100290000FBE21BDFFCF08954F925F926F927F9264
:1002A0008F929F92AF92BF92CF92DF92EF92FF9286
:1002B0000F931F936B017C01042F122F442339F0FD
:1002C00084EC53D4112319F08FEC90E0F3DEC701D6
:1002D000B60120E137E240E050E023D52B013C019C
:1002E000822F612F10DF68EE862E63E0962EA12C00
:1002F000B12CC301B201A501940113D5822F612F46
:1003000002DFC701B601A50194010BD554E6852E85
:10031000912CA12CB12CA501940103D5822F612F22
:10032000F2DEC701B601A5019401FBD44AE0842E98
:10033000912CA12CB12CA5019401F3D4822F612F13
:10034000E2DEC701B601A5019401EBD4862F612F2F
:10035000DADE002341F0112319F08AED90E0AADEE5
:1003600081EE90E042D41F910F91FF90EF90DF90CB
:10037000CF90BF90AF909F908F907F906F905F9045
:100380004F900895CF92DF92EF92FF921F93182F14
:10039000AA9A84E8EAD385EE90E08CDE70E1C72E5D
:1003A0007EE0D72EE12CF12C19C084E8DED380EF5B
:1003B00090E01BD4112381F060914A0270914B02AE
:1003C00080914C0290914D02A7019601AAD4CA01D6
:1003D000B90141E020E060DF09DF2DDF80E07DDE54
:1003E00023E08338920710F49B9BDFCFAA98112358
:1003F00041F180E8BAD389EF90E0F7D38AE091E049
:1004000059DE60914A0270914B0280914C029091AA
:100410004D0220E13EE040E050E083D4CA01B90142
:1004200041E020E039DFFFDE83EC90E043DE28E0AE
:1004300088E190E00FB6F894A89581BD0FBE21BD6C
:10044000FFCF1F91FF90EF90DF90CF9008956F92B4
:100450007F928F929F92AF92BF92CF92DF92EF9254
:10046000FF920F931F93CF93DF934C015B013A01EF
:10047000E9010F70802F806878D3C301B6D3C4011F
:10048000BFD4798368838DE191E014DE08EE13E038
:10049000E4E66E2E712C0DD480935602833049F41D
:1004A000888199818C159D0520F48A0D9B1D998367
:1004B000888380915602843049F488819981E816B6
:1004C000F90620F48A199B09998388838091560242
:1004D000813011F05F9B1DC04881598160E070E060
:1004E000C40193D481E041D38FE99FE00197F1F7F4
:1004F00000C00000DF91CF911F910F91FF90EF900E
:10050000DF90CF90BF90AF909F908F907F906F9033
:10051000089585EC2AD381E02FD388819981B80191
:10052000ECD3862F805D28D38CE226D388819981F5
:10053000B801E3D3B301E1D3862F805D1DD380E002
:100540001BD38ED3A8CF1F920F920FB60F921124F8
:100550008F939F93AF93BF9380913C0290913D0204
:10056000A0913E02B0913F020196A11DB11D809362
:100570003C0290933D02A0933E02B0933F0281E083
:1005800080934002BF91AF919F918F910F900FBECA
:100590000F901F9018952F923F924F925F926F92FB
:1005A0007F928F929F92AF92BF92CF92DF92EF9203
:1005B000FF920F931F93DF93CF9300D000D000D012
:1005C000CDB7DEB746D383E390E069DDDCD25CDDF6
:1005D00085E886B98FE391E06DDD87B3826287BBE2
:1005E00084B3847D84BB84B3846184BB86E290E061
:1005F00060E00ED38EE290E061E00AD381E591E005
:1006000059DD80E090E0FCD3609342027093430296
:10061000809344029093450281E8A7D281E591E05E
:10062000E4D284ECA2D260914202709143028091A4
:1006300044029091450240E021E02EDE81EE90E000
:10064000D4D28AED90E036DDAC9A8FEF91EEA4E043
:1006500081509040A040E1F700C00000AC988FEFBF
:1006600098E0ADE381509040A040E1F700C0000069
:1006700081E07BD2AFE9BFE01197F1F700C0000045
:10068000B5DD80E02ADDB3E08E389B0748F580E8D1
:100690006CD280E691E0A9D280EC67D287E691E047
:1006A000A4D28DE191E006DD04D38093560283301D
:1006B00021F481E0809341020BC0843021F081302D
:1006C00011F05F9B03C01092410202C0C9D2ECCF6F
:1006D00081E04BD28FE99FE00197F1F700C0000065
:1006E00084E090E064E670E044E751E02AE332E021
:1006F00004E010E0B4E6EB2EF12CA0EDCA2EA7E04A
:10070000DA2EA5DE88E090E064E670E04DE751E087
:1007100028E332E002E010E0F4ECEF2EF9E0FF2EE7
:10072000ECEACE2EEDE0DE2E92DE809141028823AF
:1007300051F081E01AD2AFE9BFE01197F1F700C0A4
:10074000000080E01FDE8AE891E0B4DC80E80DD292
:100750008FEA91E04AD280EC08D28EEB91E045D24C
:1007600062DD8DEC91E0A6DC81E0FFD18FE99FE0B6
:100770000197F1F700C000008BED91E09BDC8FB595
:1007800080688FBD8FB583608FBD8EB582608EBD52
:1007900080913A0290913B0264E670E0AED22CE286
:1007A00030E0629FC001639F900D729F900D1124F5
:1007B0009BBD8ABDC59A89B7806489BF78941AE0C9
:1007C000812E912CA12CB12C1E010894211C311CCE
:1007D000B8EE4B2EB3E05B2E612C712C2CDD80919A
:1007E0004002882309F4FFC080E077DCBC0180E090
:1007F00090E028E531EF46E050E060D228E13CE9A6
:100800004FE050E0B0D2CA01B9012AE030E040E048
:1008100050E054D26093520270935302809354027A
:100820009093550281E059DC9C01880F991FF3E0F9
:10083000220F331FFA95E1F7820F931F9C0140E0CE
:1008400050E020934E0230934F0240935002509359
:10085000510280914A0290914B02A0914C02B091BA
:100860004D02820F931FA41FB51F80934A029093DD
:100870004B02A0934C02B0934D02F9DBA1012AE098
:1008800030E08CD2C10116DC80E210DC80E86DD152
:1008900060915202709153028091540290915502DE
:1008A00040E057DC8CE092E0A0D180E2FFDB86E8FC
:1008B0005CD160914E0270914F02809150029091F4
:1008C0005102A30192012DD2822F14DC8EE254D169
:1008D0008EE2ECDB60914E0270914F0280915002EB
:1008E00090915102A30192011CD224E630E040E035
:1008F00050E017D2822FFEDB60914E0270914F02C2
:100900008091500290915102A30192010AD224E6F3
:1009100030E040E050E005D2A501940102D2822FE0
:10092000805DC4DB8EE092E060D180E2BFDB8BE8CB
:100930001CD19DDB2CE330E040E050E0F2D17901A6
:100940008A01209346023093470240934802509315
:100950004902CA01B90128E532E040E050E0E1D1A6
:10096000D22EC801B7012CE330E040E050E0D9D1ED
:10097000CA01B901A5019401D4D18D2DD9DB8AE337
:1009800095DB8AE3F9D0609146027091470280912D
:100990004802909149022CE330E040E050E0C1D1A0
:1009A000A5019401BED1822FC3DB80E27FDB80EC06
:1009B000DCD060914A0270914B0280914C02909180
:1009C0004D0220E13EE040E050E0ABD1CA01B90168
:1009D00040E021E061DC81EE90E007D180E192E02F
:1009E00069DB10924002209138023091390240E0D8
:1009F00050E08091520290915302A0915402B09124
:100A0000550282179307A407B50708F0E7CEF894BC
:100A10001BBC1ABCC59889B78F7789BF81E0A5D068
:100A2000AFE9BFE01197F1F700C0000081E89DD069
:100A300083E192E0DAD082E292E03CDB60914A020C
:100A400070914B0280914C0290914D0220E13EE06A
:100A500040E050E066D1CA01B90141E021E01CDC70
:100A600060914A0270914B0280914C0290914D022C
:100A700020E13EE040E050E054D180E090E0BA0157
:100A8000A901C3D18FEF99E6A8E181509040A04021
:100A9000E1F700C0000080E868D083E392E0A5D0D1
:100AA0008CE863D083E392E0A0D081E06BDC96CE4B
:100AB000282F207F922F24FF02C0C09A01C0C09827
:100AC00095FF02C0959A01C0959896FF02C0969A2C
:100AD00001C0969827FF02C0979A01C09798C39AC1
:100AE00095E09A95F1F70000C3988295807F982F42
:100AF00084FF02C0C09A01C0C09895FF02C0959AB9
:100B000001C0959896FF02C0969A01C0969887FFFB
:100B100002C0979A01C09798C39A85E08A95F1F729
:100B20000000C39808959AE69A95F1F700C0C4981A
:100B3000807F982F84FF02C0C09A01C0C09895FFA3
:100B400002C0959A01C0959896FF02C0969A01C07E
:100B5000969887FF02C0979A01C09798C39A85E03C
:100B60008A95F1F70000C39808959AE69A95F1F7EF
:100B700000C0C4989DDF08959AE69A95F1F700C0E9
:100B8000C49A96DF0895B89A8D9A8E9A8F9ABC9AD5
:100B9000BB9A8FEF99EFA0E081509040A040E1F721
:100BA00000C0000080E3BFDFAFE1BEE41197F1F7C2
:100BB00000C0000080E3B7DF8FE99FE00197F1F705
:100BC00000C0000080E3AFDF88E2ADDF88E2CDDF68
:100BD0008CE0CBDF81E0C9DFAFE9BFE01197F1F72F
:100BE00000C0000086E0C1DF0895EF92FF92CF932E
:100BF000DF93E82EE7017E01F92EE70101C0BCDF9B
:100C000089918823E1F7DF91CF91FF90EF900895CC
:100C10000F931F93CF93DF93EC01862F90E08770A3
:100C2000907023E0880F991F2A95E1F780649DDF7B
:100C300000E010E0FE01E00FF11F84919DDF0F5FE7
:100C40001F4F08301105B1F7DF91CF911F910F9120
:100C5000089581B3827E81BB82B38D6182BB08958A
:100C6000829B06C0839B06C0849920C094E003C089
:100C700091E001C093E080915802843189F48EE1C3
:100C80008093580290935702AC9A8FEF90E7A2E0BE
:100C900081509040A040E1F700C00000AC9808955A
:100CA000893130F48F5F8093580208951092580272
:100CB000089580915702109257020895629FD001C3
:100CC000739FF001829FE00DF11D649FE00DF11D07
:100CD000929FF00D839FF00D749FF00D659FF00DB6
:100CE0009927729FB00DE11DF91F639FB00DE11DA3
:100CF000F91FBD01CF0111240895AA1BBB1B51E1AF
:100D000007C0AA1FBB1FA617B70710F0A61BB70B7B
:100D1000881F991F5A95A9F780959095BC01CD0120
:100D20000895A1E21A2EAA1BBB1BFD010DC0AA1F2C
:100D3000BB1FEE1FFF1FA217B307E407F50720F044
:100D4000A21BB30BE40BF50B661F771F881F991FBF
:100D50001A9469F760957095809590959B01AC0108
:100D6000BD01CF01089597FB092E05260ED057FD32
:100D700004D0D7DF0AD0001C38F450954095309548
:100D800021953F4F4F4F5F4F0895F6F7909580950F
:100D9000709561957F4F8F4F9F4F0895FA01CF93C4
:100DA000FF93EF9322303CF125322CF5C22FE894CB
:100DB000CA3049F497FB3EF4909580957095619503
:100DC0007F4F8F4F9F4F2C2F332744275527FF935B
:100DD000EF93A7DFEF91FF91605D6A330CF0695DDF
:100DE0006193B901CA01605070408040904059F74A
:100DF00016F4CDE2C19310828F919F91CF910DC0D7
:100E0000A6E1B0E044E050E01AC0242F27D0252FFF
:100E100025D000C022D0272F21C0DC01FC01672F84
:100E200071917723E1F7329704C07C916D937083C1
:100E30006291AE17BF07C8F30895DC01CB01FC0136
:100E4000E199FECF06C0FFBBEEBBE09A31960DB232
:100E50000D9241505040B8F70895262FE199FECFEA
:100E60009FBB8EBB2DBB0FB6F894E29AE19A0FBEE2
:080E700001960895F894FFCFEC
:100E7800506C6561736520636F6E6E656374007492
:100E880068652062617474657279200048696768D2
:100E98002074656D706572617475726500456E7455
:100EA8006572202D207265626F6F740043726974D9
:100EB8006963616C2074656D7065726172757265C5
:100EC80021212120546573742053746F70706564F8
:100ED8000D0A005265626F6F74696E670D0A0043F0
:100EE800617061636974793A2000206D41680D0A68
:100EF800006D4168004368617267696E670D0A009A
:100F08004368617267696E670046756C6C20636838
:100F1800617267656421203A290046756C6C20630C
:100F280068617267656421203A290D0A005072656C
:100F3800737320616E79206B657920746F20736BF1
:100F480069702073656C656374696F6E0D0A00497A
:100F58006E697469616C697A696E672E2E2E0D0A46
:100F6800004C6173742063617061636974793A003D
:100F780043686172676500746865206261747465AE
:100F880072793F0043757272656E743A00456E64FB
:100F980020766F6C746167653A00507265737320D0
:100FA800616E79206B657920746F20737461727437
:100FB8002074686520746573742E2E2E0D0A0050F7
:100FC8007265737320737461727420746F00626544
:100FD80067696E2074686520746573740053746162
:100FE8007274696E672E2E2E0D0A005365636F6E3C
:100FF8006473207C20566F6C74616765207C204187
:101008006D706572616765207C2054696D65207C10
:10101800206D4168207C2057680D0A005600410069
:101028000D0A005465737420636F6D706C65746588
:1010380064005465737420636F6D706C65746564C7
:0C1048000D0A002020202000C409E8034D
:00000001FF
