:100000001AC034C033C032C024C530C02FC02EC087
:100010002DC02CC02BC09FCA51CA28C027C026C0E3
:1000200025C024C023C002040810080402000804EC
:1000300002010204080011241FBECFE5D4E0DEBF98
:10004000CDBF13E0A0E6B0E0E8EFF6E102C0059016
:100050000D92A430B107D9F713E0A4E0B3E001C0DA
:100060001D92AE37B107E1F71CD544CBC9CFB89A82
:10007000BB9ABC9AC098C398C49808952091040371
:1000800088E090E027FF02C0C09A01C0C098C39AE0
:10009000C398019711F0220FF5CFC49AC498089520
:1000A000FA01EC5FFC4F6115710551F021E030E081
:1000B00002C0220F331F8A95E2F78081822B0AC08B
:1000C00021E030E002C0220F331F8A95E2F720952D
:1000D000808182238083D2DF08956C5F7C4FFB0197
:1000E0008083CCDF0895FC01EC5FFC4F8081089594
:1000F00010926D038EE693E090936A0380936903F8
:1001000010920603109205030895909105038D3017
:1001100009F44AC09F3008F040C0803279F1209144
:100120006D03222349F42EE633E030936A032093D3
:10013000690321E020936D03209106032223A9F097
:1001400040916D03423078F4E42FF0E0EE0FFF1F92
:10015000E759FC4F292F30E022593C4F318320834F
:100160004F5F40936D0310920603A92FB0E0A25990
:10017000BC4F8C939F5F909305030FC08091060343
:10018000882359F4A92FB0E0A259BC4F1C929F5F5D
:100190009093050381E080930603E0910503F0E06E
:1001A000E259FC4F10820895E92FF0E0E259FC4F2C
:1001B000108280916D03882319F069E673E037D0CF
:1001C00010926D0310920603109205030895E82F14
:1001D000F92F3E2F2F2F81918033D9F3C901E92FB9
:1001E000F82F20E030E011C090E0C097280F391FB1
:1001F0008081882351F0C901880F991F43E0220FA5
:10020000331F4A95E1F7280F391F8191882361F741
:10021000C9010895F8942091070330910803409193
:10022000090350910A037894B901CA0108951F93F4
:10023000FB0180819181CBDF90932603809325037E
:10024000109124031130A9F49C01245C3940F3E09F
:10025000293E3F0758F464E670E0AAD9009731F4CC
:1002600080E690E018D91093280303C085E690E05B
:1002700012D9809124038230D1F48091250390918A
:1002800026039C012456304047E02D36340760F4A5
:1002900064E670E08DD9009739F480E690E0FBD8F1
:1002A00081E08093280303C085E690E0F4D81F9195
:1002B000089589B78F7789BF82B5886082BD14BCE5
:1002C00085B5856085BD089587B98AE18A95F1F77E
:1002D00000C0E4E660E070E0CB01369A349BFECFCC
:1002E000349A24B135B140E050E0620F731F841F8F
:1002F000951FE15091F724E630E040E050E06CD9E2
:10030000C90108951F93182F105D812F0AD7812FDF
:100310009CD81F9108951F93DF93CF930F92CDB771
:10032000DEB7182F105D812F6983FBD669816623A4
:1003300011F0812F8AD80F90CF91DF911F910895EE
:100340000F931F93162F082F005D802FEAD6105DA4
:10035000812FE7D6802F79D8812F77D81F910F91E1
:100360000895AF92BF92CF92DF92EF92FF920F93D8
:100370001F937B018C0120EA36E841E050E02CD944
:1003800020E137E240E050E027D9209327032223E1
:1003900011F0822FB7DFC801B70120E137E240E05A
:1003A00050E01AD938EEA32E33E0B32EC12CD12C55
:1003B000A601950111D9822FA5DF8EE2B2D68EE279
:1003C00044D8C801B701A601950106D924E6A22E9A
:1003D000B12CC12CD12CA6019501FED8822F92DF21
:1003E00080912703882361F4C801B701A601950114
:1003F000F3D82AE030E040E050E0EED8822F82DFF0
:100400001F910F91FF90EF90DF90CF90BF90AF9032
:1004100008950F931F93182F062F80E055DF873222
:10042000910508F04DC081E06BD68FE99FE0019700
:10043000F1F700C0000080E863D685E790E0A5D61C
:1004400080EC5ED684E890E0A0D61BBC1ABC0023EA
:1004500051F086E090E060E070E040E050E020DEA7
:1004600089B78F7B89BF80E02FDF87329105D8F372
:100470000023E1F086E090E061E070E040E050E0D1
:100480000FDE89B7806489BF8091010390910203D8
:1004900064E670E08DD84CE250E0649F9001659F67
:1004A000300D749F300D11243BBD2ABD112341F046
:1004B00081E026D68FE99FE00197F1F700C00000A8
:1004C0001F910F910895109221031092220307C0EB
:1004D00072D727D78093210324D78093220380915A
:1004E00021038130A9F780912203813089F7089593
:1004F00085E0EADE22E08835920778F181E000D6D7
:100500008FE99FE00197F1F700C0000080E8F8D57F
:1005100081E990E03AD681ECF3D582EA90E035D6D5
:1005200081EB90E0B8D71BBC1ABC89B78F7B89BF21
:1005300086E090E060E070E040E050E0B1DDC3DFD5
:1005400088ED90E0A8D728E088E190E00FB6F89415
:10055000A89581BD0FBE21BDFFCF08954F925F9238
:100560006F927F928F929F92AF92BF92CF92DF92C3
:10057000EF92FF920F931F936B017C01042F122FB8
:10058000442339F084ECBCD5112319F084EE90E0BB
:1005900082D7C701B60120E137E240E050E01CD825
:1005A0002B013C01822F612FB6DE68EE862E63E0C0
:1005B000962EA12CB12CC301B201A50194010CD837
:1005C000822F612FA8DEC701B601A501940104D8CE
:1005D00054E6852E912CA12CB12CA5019401FCD7B9
:1005E000822F612F98DEC701B601A5019401F4D7CF
:1005F0004AE0842E912CA12CB12CA5019401ECD7BA
:10060000822F612F88DEC701B601A5019401E4D7CE
:10061000862F612F80DE002341F0112319F08FEE29
:1006200090E039D786EF90E0B0D51F910F91FF9001
:10063000EF90DF90CF90BF90AF909F908F907F9082
:100640006F905F904F900895CF92DF92EF92FF925C
:100650001F93182F87E090E061E070E040E050E0E9
:100660001FDD84E84DD58AEF90E015D770E1C72EE5
:100670007EE0D72EE12CF12C1BC084E841D585E02B
:1006800091E083D5112381F06091150370911603D9
:100690008091170390911803A70196019DD7CA0175
:1006A000B90141E020E05ADF81E060E0B2DE20DF06
:1006B00080E00ADE26E08E33920710F49B9BDDCFAC
:1006C00087E090E060E070E040E050E0E9DC11237A
:1006D00041F180E815D58EE091E057D58FE191E0AA
:1006E000DAD66091150370911603809117039091EB
:1006F000180320E13EE040E050E06ED7CA01B901A6
:1007000041E020E02BDFDFDE88ED90E0C4D628E07A
:1007100088E190E00FB6F894A89581BD0FBE21BD89
:10072000FFCF1F91FF90EF90DF90CF900895EF9251
:10073000FF920F931F932091FF023091000340E03E
:1007400050E080911D0390911E03A0911F03B09172
:10075000200382179307A407B50708F09EC082E321
:1007600091E099D660911D0370911E0380911F0343
:100770009091200320E137E240E050E02DD7A8EE31
:10078000EA2EA3E0FA2E012D112DA801970124D7FE
:10079000822F5BD68EE259D660911D0370911E03A5
:1007A00080911F0390912003A801970115D7F4E6CB
:1007B000EF2EF12C012D112DA80197010DD7822FBD
:1007C00044D660911D0370911E0380911F03909188
:1007D0002003A801970100D72AE030E040E050E074
:1007E000FBD6822F32D680E491E055D61BBC1ABCD2
:1007F00086E090E060E070E040E050E051DC89B7D6
:100800008F7789BF81E07CD48FE99FE00197F1F772
:1008100000C0000081E874D484E491E0B6D483E59C
:1008200091E039D6609115037091160380911703FA
:1008300090911803E0E1EE2EEEE0FE2E012D112D39
:10084000A8019701C9D6CA01B90141E021E086DEBD
:10085000609115037091160380911703909118030E
:10086000A8019701B9D680E090E0BA01A9010DD79F
:100870008FEF99E6A8E181509040A040E1F700C0D9
:10088000000080E83DD484E691E07FD48CE838D441
:1008900084E691E07AD481E0D7DE1F910F91FF903A
:1008A000EF9008952F923F924F925F926F927F92B6
:1008B0008F929F92AF92BF92CF92DF92EF92FF9270
:1008C0000F931F93DF93CF9300D0CDB7DEB79A83FA
:1008D00089831B012A0139010F70802F806810D491
:1008E000C20153D489819A81CBD6F301718360838D
:1008F0008F8980932403C201CED589E691E0CBD5C0
:10090000C401C9D5F3018081918108EE13E0B801DB
:100910004FD6862F805D99D58CE297D5F3018081E3
:100920009181B80145D664E670E042D6862F805D9D
:100930008CD5C501B0D5B4E68B2E912CF2D4809322
:100940002103EFD480932203E6D5882321F0E6D556
:1009500080932303DADB80912103823071F480914C
:100960002203813051F4F301808191818C159D0522
:1009700020F4820D931D9183808380912103833025
:1009800071F480912203813051F4F30180819181CF
:10099000E816F90620F482199309918380838091E7
:1009A0002103813021F480912203813021F0809154
:1009B0002803882391F180912803882349F08091AE
:1009C000250390912603F3019183808310922803DD
:1009D000F3014081518160E070E089819A8155D6B0
:1009E00081E08ED38FE99FE00197F1F700C000000E
:1009F0000F900F90CF91DF911F910F91FF90EF908B
:100A0000DF90CF90BF90AF909F908F907F906F902E
:100A10005F904F903F902F90089585EC71D381E0C7
:100A200080D3F30180819181B801C2D5862F805D8A
:100A300078D38CE276D3F30180819181B801B8D567
:100A4000B401B6D5862F805D6CD380E06AD3B3D471
:100A500075CF1F920F920FB60F9211248F939F9311
:100A6000AF93BF938091070390910803A09109036E
:100A7000B0910A030196A11DB11D809307039093C5
:100A80000803A0930903B0930A0381E080930B034A
:100A9000BF91AF919F918F910F900FBE0F901F90BC
:100AA00018952F923F924F925F926F927F928F9202
:100AB0009F92AF92BF92CF92DF92EF92FF920F93ED
:100AC0001F93DF93CF9300D000D000D0CDB7DEB717
:100AD0003DD481E060E875E281D40ADBC8DA32D324
:100AE000E8DB85E886B98CE691E0D5D4B99A84B381
:100AF000847D84BB86E290E060E05AD38EE290E091
:100B000061E056D38EE791E0C6D480E090E0B8D59E
:100B100060930D0370930E0380930F039093100363
:100B200081E8EED28EE791E030D384ECE9D2609197
:100B30000D0370910E0380910F039091100340E01C
:100B400021E00CDD86EF90E020D38FEE90E0A3D47F
:100B50008FEF98E0ADE381509040A040E1F700C0F6
:100B6000000080E060E055DC80E0AEDBA6E082358E
:100B70009A0708F047C081E0C3D2EFE9FFE0319760
:100B8000F1F700C0000080E8BBD28DE891E0FDD213
:100B900080ECB6D284E991E0F8D281EA91E07BD48E
:100BA000C0D380932103BDD380932203B7D4809315
:100BB000230390912103923021F4209122032130CC
:100BC00021F0893511F0893721F481E080930C03FD
:100BD00011C0933011F0913021F4909122039130A3
:100BE00021F08E3411F08E3619F410920C0302C0ED
:100BF000E2D3D6CF81E084D28FE99FE00197F1F76D
:100C000000C000000F9282E0ADB7BEB711968C9382
:100C100084E090E064E670E04DEB51E021E033E0E9
:100C200004E010E0B4E6EB2EF12CA0EDCA2EA7E014
:100C3000DA2EF6ECAF2EF1E0BF2EEAEF8E2EE1E0D9
:100C40009E2E30DE81E0EDB7FEB7818388E090E034
:100C500064E670E049E052E02FEF32E002E010E09D
:100C6000B4ECEB2EB9E0FB2EACEACA2EADE0DA2EE6
:100C7000F6E1AF2EF2E0BF2E15DE0F9080910C034F
:100C8000882351F081E03CD28FE99FE00197F1F792
:100C900000C0000080E0D8DC8BE492E0FCD380E868
:100CA0002FD280E792E071D280EC2AD28FE792E0D7
:100CB0006CD209DC8EE892E0EED381E021D2AFE97C
:100CC000BFE01197F1F700C000008CE992E0E3D398
:100CD0008FB580688FBD8FB583608FBD8EB5826004
:100CE0008EBD809101039091020364E670E060D4B0
:100CF0002CE230E0629FC001639F900D729F900DC7
:100D000011249BBD8ABD86E090E061E070E040E088
:100D100050E0C6D989B7806489BF78941E010894D1
:100D2000211C311CE8EE8E2EE3E09E2EA12CB12C6E
:100D30007AE0472E512C612C712C81E061E069DB57
:100D4000D7DB80910B03882309F4FCC080E0BCDA78
:100D50009C01220F331F280F391F3F73C901880FD1
:100D6000991F43E0220F331F4A95E1F7820F931F2B
:100D7000A0E0B0E080931D0390931E03A0931F0397
:100D8000B093200381E0A0DA9C01880F991F13E043
:100D9000220F331F1A95E1F7820F931F9C0140E049
:100DA00050E02093190330931A0340931B03509390
:100DB0001C038091150390911603A0911703B09125
:100DC0001803820F931FA41FB51F809315039093E0
:100DD0001603A0931703B09318031CDAA1012AE0AD
:100DE00030E01CD4C10157D380E22FD380E888D1F2
:100DF00060911D0370911E0380911F039091200349
:100E0000B0DA88EC92E0C1D180E21FD386E878D1D5
:100E10006091190370911A0380911B0390911C0338
:100E2000A5019401D9D3822F6DDA8EE27AD18EE2B8
:100E30000CD36091190370911A0380911B03909158
:100E40001C03A5019401C8D324E630E040E050E043
:100E5000C3D3822F57DA6091190370911A038091DE
:100E60001B0390911C03A5019401B6D324E630E046
:100E700040E050E0B1D3A3019201AED3822F805D58
:100E8000E4D28AEC92E081D180E2DFD28BE838D1E3
:100E9000C1D92CE330E040E050E09ED379018A01D3
:100EA00020931103309312034093130350931403C0
:100EB000CA01B90128E532E040E050E08DD3D22EDE
:100EC000C801B7012CE330E040E050E085D3CA010F
:100ED000B901A301920180D38D2D32DA8AE3B5D214
:100EE0008AE31FD160911103709112038091130363
:100EF000909114032CE330E040E050E06DD3A30167
:100F000092016AD3822F1CDA80E29FD280ECF8D063
:100F10006091150370911603809117039091180347
:100F200020E13EE040E050E057D3CA01B90140E083
:100F300021E014DB86EF90E028D189E691E0ABD286
:100F400010920B0338D2EDD180932103EAD1809324
:100F5000220390912103913009F052C0813009F0B1
:100F60004FC01BBC1ABC86E090E060E070E040E03F
:100F700050E096D889B78F7B89BF8CEC92E08BD2FA
:100F800089ECBED08DED92E000D110922103109239
:100F9000220307C010D2C5D180932103C2D1809310
:100FA0002203809121038130A9F7809122038130AF
:100FB00089F78CE691E06FD2809101039091020352
:100FC00064E670E0F5D2ECE2F0E06E9FC0016F9F46
:100FD000900D7E9F900D11249BBD8ABD86E090E010
:100FE00061E070E040E050E05BD889B7806489BF81
:100FF00089EC86D084EE92E0C8D08BEE92E04BD2A2
:1010000096DB9BCE1F93182F80E090E06CD8282FA2
:1010100030E0237C3070412F407F4695469550E06C
:10102000C901842B952B60E070E057D880E090E0F8
:1010300061E070E040E050E033D885E08A95F1F758
:10104000000080E090E060E070E040E050E028D8F0
:10105000129580E090E047D8282F30E0237C307054
:10106000107F16951695812F90E0822B932B60E0D0
:1010700070E033D880E090E061E070E040E050E064
:101080000FD885E08A95F1F7000080E090E060E0FD
:1010900070E040E050E004D81F9108951F93182F8E
:1010A0008AE68A95F1F700C081E090E060E070E0A8
:1010B00040E050E0F5D780E090E015D8282F30E0F0
:1010C000237C3070107F16951695812F90E0822B2F
:1010D000932B60E070E001D880E090E061E070E088
:1010E00040E050E0DDD785E08A95F1F7000080E030
:1010F00090E060E070E040E050E0D2D71F910895AA
:101100001F93182F8AE68A95F1F700C081E090E0DE
:1011100060E070E040E050E0C3D7812F73DF1F91A3
:1011200008951F93182F8AE68A95F1F700C081E091
:1011300090E061E070E040E050E0B2D7812F62DFE4
:101140001F91089580E3AADF8FE19EE40197F1F7F4
:1011500000C0000080E3A2DF8FE99FE00197F1F774
:1011600000C0000080E39ADF88E298DF88E2C8DFF1
:101170008CE0C6DF81E0C4DF8FE99FE00197F1F7E3
:1011800000C0000086E0BCDF0895EF92FF92CF938D
:10119000DF93E82EE7017E01F92EE70101C0C1DFF0
:1011A00089918823E1F7DF91CF91FF90EF90089527
:1011B0000F931F93CF93DF93EC01862F90E08770FE
:1011C000907023E0880F991F2A95E1F7806498DFDB
:1011D00000E010E0FE01E00FF11F8491A2DF0F5F3D
:1011E0001F4F08301105B1F7DF91CF911F910F917B
:1011F000089520913803283078F490913903E92F2D
:10120000F0E0E65CFC4F80832F5F20933803892F4A
:101210008F5F87708093390308950F931F93CF9347
:10122000DF93962F9150C92FD0E0FE01E75DFC4F70
:101230001081FE01E45DFC4F908190932F03FE012D
:10124000EE0FFF1FE05DFC4F2081318130933703AB
:10125000209336038823F1F081E0253F3807C0F55D
:101260002F5F3F4F30933703209336032B303105E8
:1012700078F110FD05C0116040FF02C001E001C01F
:1012800000E081E0253F380721F511FD22C01B7FDA
:1012900012601FC010FF0CC011FD0AC012FF05C074
:1012A0001B7F44FF05C005E004C010922F031460AB
:1012B00000E012FF07C080912F03893C18F01092C4
:1012C0002F031B7F10923703109236031C7F01C03F
:1012D00000E012FF07C080912F03893C18F48F5F54
:1012E00080932F03FE01E45DFC4F80912F038083E8
:1012F000002321F0862F7DDF802F7BDFFE01EE0FA4
:10130000FF1FE05DFC4F809136039091370391837E
:101310008083C75DDC4F1883DF91CF911F910F91C0
:10132000089520913803222379F090914203E92F08
:10133000F0E0E65CFC4F80812150209338039F5FF2
:10134000977090934203089580E0089510923103BE
:10135000109230031092290310922C031092330341
:101360001092320310922A0310922D03109235032B
:101370001092340310922B0310922E0310923A0312
:1013800010923B0310923C0310923D0310923E03D7
:1013900010923F03109240031092410310923903C0
:1013A00010924203109238038A9892988B989398DF
:1013B0008C989498089581E0829980E061E041E101
:1013C0002CDF81E0839980E062E041E026DF81E06C
:1013D000849980E063E041E020DF08951F931FB708
:1013E000F8941092680310925703109256031092CB
:1013F000440310925503109243031AB810BC9B018A
:1014000040E050E0882341F494E0220F331F441F52
:10141000551F9A95D1F707C083E0220F331F441F51
:10142000551F8A95D1F760E072E18AE790E0D4D049
:101430002150304030BD29B982E08BB988E98AB9A2
:1014400086E880BD1FBF1F9108959091560390318B
:10145000E1F3F89490915603992309F4559A9091E9
:1014600056039031B0F4E0916803F0E0E85AFC4F85
:101470008083809156038F5F809356038091680329
:101480008F5F8093680380916803803111F410921C
:10149000680378940895EF92FF92CF93DF93E82E3C
:1014A000E7017E01F92EE70101C0CFDF8991882392
:1014B000E1F7DF91CF91FF90EF9008951F920F9287
:1014C0000FB60F9211248F93EF93FF9380915603E1
:1014D0008823C1F0E0915703F0E0E85AFC4F808187
:1014E0008CB98091560381508093560380915703A5
:1014F0008F5F8093570380915703803121F41092BE
:10150000570301C05598FF91EF918F910F900FBE37
:101510000F901F9018958091430308958091430385
:101520008823B9F0E0915503F0E0EB5BFC4F80813C
:1015300090914303915090934303909155039F5F83
:101540009093550390915503903121F410925503D7
:10155000089580E008951F920F920FB60F92112404
:101560008F939F93EF93FF938CB1909143039031AE
:10157000B0F4E0914403F0E0EB5BFC4F808380919A
:1015800044038F5F8093440380914403803111F4BE
:1015900010924403809143038F5F80934303FF9134
:1015A000EF919F918F910F900FBE0F901F90189504
:1015B000AA1BBB1B51E107C0AA1FBB1FA617B70779
:1015C00010F0A61BB70B881F991F5A95A9F7809595
:1015D0009095BC01CD010895A1E21A2EAA1BBB1B58
:1015E000FD010DC0AA1FBB1FEE1FFF1FA217B307EF
:1015F000E407F50720F0A21BB30BE40BF50B661F05
:10160000771F881F991F1A9469F7609570958095C8
:1016100090959B01AC01BD01CF010895FA01CF93D4
:10162000FF93EF9322303CF125322CF5C22FE89442
:10163000CA3049F497FB3EF490958095709561957A
:101640007F4F8F4F9F4F2C2F332744275527FF93D2
:10165000EF93C2DFEF91FF91605D6A330CF0695D3B
:101660006193B901CA01605070408040904059F7C1
:1016700016F4CDE2C19310828F919F91CF910DC04E
:10168000A6E1B0E044E050E01AC0242F27D0252F77
:1016900025D000C022D0272F21C0DC01FC01672FFC
:1016A00071917723E1F7329704C07C916D93708339
:1016B0006291AE17BF07C8F30895DC01CB01FC01AE
:1016C000E199FECF06C0FFBBEEBBE09A31960DB2AA
:1016D0000D9241505040B8F70895262FE199FECF62
:1016E0009FBB8EBB2DBB0FB6F894E29AE19A0FBE5A
:0816F00001960895F894FFCF64
:1016F8004F4B0D0A00496E76616C69642076616C07
:1017080075650D0A00506C6561736520636F6E6EB8
:101718006563740074686520626174746572792009
:1017280000486967682074656D70657261747572C8
:101738006500456E746572202D207265626F6F7446
:1017480000437269746963616C2074656D706572B9
:101758006172757265212121205465737420537458
:101768006F707065640D0A005265626F6F74696E00
:10177800670D0A0043617061636974793A2000203B
:101788006D41680D0A006D416800436861726769C0
:101798006E670D0A004368617267696E6700467577
:1017A8006C6C206368617267656421203A29004681
:1017B800756C6C206368617267656421203A290D35
:1017C8000A004C6F7720766F6C746167653A200069
:1017D800560D0A005465737420636F6D706C6574E0
:1017E8006564005465737420636F6D706C6574650F
:1017F800640D0A0020202020000D0A00496E69743B
:1018080069616C697A696E672E2E2E0D0A004C612B
:1018180073742063617061636974793A0043686125
:101828007267650074686520626174746572793FD7
:10183800004368617267652074686520626174742A
:101848006572793F2028592F4E290D0A0043757279
:1018580072656E743A000D0A53656E642076616C89
:101868007565203130302D3230303020776974681A
:1018780020737465702031303020286F72207365B2
:101888006E64206F6B293A0D0A0044656661756CB9
:10189800742076616C75653A00456E6420766F6CCD
:1018A800746167653A000D0A53656E642076616C51
:1018B800756520323530302D3335303020776974F6
:1018C8006820737465702031303020286F7220735F
:1018D800656E64206F6B293A0D0A00507265737348
:1018E80020616E79206B657920746F207374617242
:1018F800742074686520746573742E2E2E0D0A008A
:10190800507265737320737461727420746F00620F
:101918006567696E20746865207465737400537414
:10192800617274696E672E2E2E0D0A005365636FFF
:101938006E6473207C20566F6C74616765207C2010
:10194800416D706572616765207C2054696D652002
:101958007C206D41680D0A0056004100546573747F
:101968002073757370656E6465640D0A0050415587
:101978005345440020202020202000546573742003
:10198800636F6E74696E7565642E2E2E0D0A00C421
:0419980009E8030057
:00000001FF
